:1000000000800020BD010000D1770000897700004A
:1000100089770000897700008977000089770000E0
:10002000897700008977000089770000D177000088
:10003000D177000089770000958A0000998B000035
:10004000D1770000D1770000D1770000D177000090
:10005000D1770000D1770000D1770000D177000080
:10006000D1770000D1770000D1770000D177000070
:10007000D1770000D1770000D1770000D177000060
:10008000D1770000D1770000D1770000D177000050
:10009000D1770000D1770000D1770000D177000040
:1000A0000D61000019610000D1770000D1770000D8
:1000B000D1770000D1770000D1770000D177000020
:1000C000D1770000D1770000D1770000D177000010
:1000D000D1770000D1770000D1770000D177000000
:1000E000D1770000D1770000D1770000D1770000F0
:1000F000D17700005D8E0000D1770000318D0000C7
:10010000D1770000898F0000D1770000D1770000FF
:10011000D1770000D1770000D1770000D1770000BF
:10012000D1770000D1770000D1770000D1770000AF
:10013000D1770000D1770000D1770000D17700009F
:10014000D1770000D1770000D1770000D17700008F
:10015000D1770000D1770000D1770000D17700007F
:10016000D17700001D7A0000D1770000D177000020
:10017000D1770000D1770000D1770000D17700005F
:10018000D1770000D1770000D1770000D17700004F
:10019000D1770000D1770000D1770000D17700003F
:1001A000D1770000D1770000D1770000D17700002F
:1001B000D1770000D1770000D1770000564B4CF288
:1001C000205210B51A804DF628121A8000BF00BFC9
:1001D00007F002FB514B4FF010621A60504A9A60D0
:1001E000504ADA60504A136813F4807304D14F49BF
:1001F0000B604FF4A85313604D4B1A78110703D5C9
:100200001A7842F008021A704A4B4B492A221A7097
:100210004A4A4B4B8B4204D252F8040F43F8040B6A
:10022000F8E7484B484900228B4202D243F8042B9E
:10023000FAE74649464A002352F8230041F82300D2
:1002400001336F2BF8D1434B434A802103F8011B44
:100250009342FBD1414B3D4A1A60414B8A221A70AE
:10026000A3F5805324225A70A0221A709A7992071B
:10027000FCD59A79D406FCD43A4A937903F00C035E
:10028000082B384BF9D105221A7143225A719A79F9
:100290009006FCD5334A9179324B4906FBD5324A58
:1002A0004FF0817111600521516020221A709A79F6
:1002B00002F00C020C2AFAD12C4B2D4A1A602D4B5D
:1002C0002D4A1A6000225A60072243F8042C2B4A58
:1002D000C3F80C2D62B607F0E7F9144B1B68DA0778
:1002E00005D5274806F0BEFF264B274A1A60274B44
:1002F0001B785B0609D5234C234B22689A4204D114
:100300001F4806F0AFFF002323600BF0B1F807F0A1
:1003100069FA08F085FAFEE70E20054030800440B7
:10032000823F04000100002B10D0034014D0034092
:1003300002D0074000E00740E89CFF1F300E01009C
:100340002089FF1FE89CFF1F5CC2FF1F0084FF1F66
:100350000000000000E400E05FE400E008ED00E0E1
:1003600000500640004006404480044004800440A1
:10037000C010050014E000E03F190100000020203B
:10038000310000001CE00340A5C3945A00F0074070
:10039000FFFFFFFFFFFFFFFFFFFFFFFFFFFFFFFF6D
:1003A000FFFFFFFFFFFFFFFFFFFFFFFFFFFFFFFF5D
:1003B000FFFFFFFFFFFFFFFFFFFFFFFFFFFFFFFF4D
:1003C000FFFFFFFFFFFFFFFFFFFFFFFFFFFFFFFF3D
:1003D000FFFFFFFFFFFFFFFFFFFFFFFFFFFFFFFF2D
:1003E000FFFFFFFFFFFFFFFFFFFFFFFFFFFFFFFF1D
:1003F000FFFFFFFFFFFFFFFFFFFFFFFFFFFFFFFF0D
:10040000FFFFFFFFFFFFFFFFFFFFFFFFDEF9FFFF23
:1004100010B5054C237833B9044B13B10448AFF33E
:1004200000800123237010BDE89CFF1F0000000026
:100430002C0E0100084B10B51BB108490848AFF35A
:1004400000800848036803B910BD074B002BFBD0A0
:10045000BDE81040184700BF00000000EC9CFF1FE3
:100460002C0E0100E89CFF1F00000000002202701B
:1004700002784270704700BF017002784270704786
:10048000017070470278034602F0FF0022B15A78EB
:1004900012B901225A7070471A785A7000207047BA
:1004A00003782BB983781BB90123837018467047F2
:1004B000037883F0010383700020704710B5074C68
:1004C00004F1200008F07EF804F1100008F07AF83A
:1004D0002046BDE8104008F075B800BF349DFF1FEE
:1004E00038B5054CA4F190052046103C08F06AF898
:1004F000AC42F9D138BD00BF149EFF1FF0B5294CA6
:10050000294B617B20698BB00025049313260223BD
:10051000122705932A462B460196039500950297CC
:1005200005F032F82369214E42F21072C3F87822A6
:1005300000F0C8FF00F0CEFC02F070FB86FB053433
:10054000A4EBE57404EB44042C1BFF21204600F0CF
:1005500023FD4FF4C87007F057F8013520460021FD
:1005600000F01AFD052DE9D100F068FA00F00AFB51
:1005700001F082FA02F0B0F84FF47A7007F044F814
:1005800000240B4906A808F05DF8204606A900F0F3
:10059000D9FA013406A808F015F8092CF1D10BB0EE
:1005A000F0BD00BF50BFFF1F801A060056555555BD
:1005B00008FE000070B5134D134C82B001F078FABC
:1005C00000F09CFF02F024F82B680093009B226847
:1005D0009B1AB3F5FA7F12D90C4E3378002B44F2F4
:1005E00044414FF0020018BF002100F0D5FC2A68FA
:1005F0003378019283F00103019A3370226002B0D4
:1006000070BD00BF78BFFF1F649EFF1F008AFF1FE1
:100610002DE9F04FDFF834926E4C6F4DDFF83082E9
:100620006E496F4E6F4FDFF82CB2DFF82CA285B009
:10063000484608F007F82246294648460AF0D6FE02
:100640004046694907F0FEFF2246294640460AF027
:10065000CDFE3046654907F0F5FF394606F110003A
:1006600007F0F0FF6846624907F0ECFF494668462C
:1006700008F07EF8014606F1200007F0F7FF684613
:1006800007F0A0FF414606F1300007F0EFFF06F14A
:1006900040005849DFF8C491DFF8C48107F0D2FF69
:1006A00006F15000544907F0CDFF394606F16000CD
:1006B00007F0C8FF394606F1700007F0C3FF39465E
:1006C00006F1800007F0BEFF22464C494C4F4D4ECC
:1006D00000200AF08BFE58464B4907F0B3FF224634
:1006E000294658460AF082FE50464849DFF874B160
:1006F00007F0A8FF2246294650460AF077FE4846F2
:100700004349DFF864A107F09DFF22462946484689
:100710000AF06CFE40463F49DFF8509107F092FF27
:100720002246294640460AF061FE38463A49DFF83B
:10073000408107F087FF2246294638460AF056FED8
:1007400030463649364F07F07DFF2246294630466F
:100750000AF04CFE5846334907F074FF22462946FA
:1007600058460AF043FE50462F4907F06BFF2246D9
:10077000294650460AF03AFE48462C4907F062FFE7
:100780002246294648460AF031FE4046284907F0ED
:1007900059FF2246294640460AF028FE3846254998
:1007A00007F050FF07F11000234907F04BFF07F156
:1007B0002000224907F046FF2246214900200AF086
:1007C00015FE204A204B12680092009A1A6005B06C
:1007D000BDE8F08FFC89FF1FC5850000E0FD00002B
:1007E000949DFF1F08FE0000E8FD0000F4FD0000DE
:1007F00000FE00000CFE000018FE0000E1040000F6
:10080000649DFF1F789EFF1F28FE000030FE000041
:1008100034FE00003CFE000044FE000048FE0000E4
:10082000349DFF1F54FE000060FE00006CFE0000BF
:1008300074FE00007CFE00008CFE0000A0FE0000A4
:10084000BD04000078BFFF1F649EFF1F849DFF1F33
:10085000149DFF1F249DFF1F749DFF1F689EFF1F97
:10086000449EFF1F349EFF1F249EFF1F549EFF1FA8
:10087000049DFF1F38B5054CA4F190052046103C9F
:1008800007F0A0FEAC42F9D138BD00BF289FFF1F82
:1008900030B52A492A482B4C85B007F0D3FE2A4AA6
:1008A0002A4927480AF0A2FD29492A4807F0CAFE2A
:1008B000254A264927480AF099FD2749274807F085
:1008C000C1FE2749274807F0BDFE2749684607F0C3
:1008D000B9FE1B49684607F04BFF0146234807F065
:1008E000C5FE684607F06EFE1A49214807F0BEFEB5
:1008F0002049214807F0A6FE2049214807F0A2FE22
:100900001749204807F09EFE15491F4807F09AFE38
:1009100013491E4807F096FE0B4A1D4900200AF0B5
:1009200065FD04F5B47520464FF0FF31283403F01F
:1009300013F9A542F7D105B030BD00BFE0FD0000BE
:10094000889EFF1F389FFF1FFC89FF1FC585000081
:10095000E8FD0000989EFF1FF4FD0000A89EFF1F09
:1009600008FE0000B89EFF1F00FE0000C89EFF1F8B
:10097000D89EFF1F0CFE0000E89EFF1F18FE00001F
:10098000F89EFF1F089FFF1F189FFF1F289FFF1F34
:100990007508000070B584B0002108288DF80D108E
:1009A00039D8234B53F820208A42224901EA020118
:1009B0001346B8BFD31D00294FEAE3032DDB8BB3E9
:1009C000012B04BF03FA01F18DF80D1000251A4C1C
:1009D0007021204604F0DAFE29462046002504F066
:1009E000ABFB627B216900950123204605F030F8BE
:1009F0009DF80D602046712104F0C8FE3146204666
:100A000004F09AFB627B216900952046012305F0E2
:100A10001FF804B070BD0D46D9E7013961F0070138
:100A20000131CCE7012303FA01F1CDB2CFE700BFDA
:100A3000B0FE00000700008050BFFF1F2DE9F04707
:100A40003F4C8AB0002501264FF0FF31684603F085
:100A500083F89DF804E0BDF80670BDF80800BDF805
:100A60000A10BDF80C20BDF80E309DF816C084F8B1
:100A700004E0E7809DF817E09DF8187020816181FF
:100A80009DF819009DF81A10A281E381079A9DF83C
:100A90002030BDF810A0BDF81290BDF8148084F885
:100AA00016C084F817E027766076A176E26184F8B4
:100AB00020302846A4F810A0A4F81290A4F81480BE
:100AC0009DF821809DF822C09DF823E09DF8251017
:100AD0009DF826209DF827309DF8247084F822C0C8
:100AE00084F823E084F8251084F8262084F8273041
:100AF00084F8218084F82470FFF74CFF01233C2206
:100B00002046022103F0AAF80221204602F09AFDB5
:100B10002046A6826682013503F036F800220A23B9
:100B20002046E281238203F0D9F9092D04F128043B
:100B30008AD14FF0FF30FFF72DFF0AB0BDE8F087F4
:100B4000389FFF1F38B50D460446FFF723FF0C4BB7
:100B500004EB840403EBC404204603F015F80023DF
:100B60002946E3812382204608F03EF8204603F020
:100B7000B5F94FF0FF30BDE83840FFF70BBF00BFBD
:100B8000389FFF1F30B50A4D85B0002429466846BE
:100B900007F06CFD20466946FFF7D4FF0134684634
:100BA00007F010FD092C05F11005EFD105B030BD9F
:100BB000A89EFF1F0022027042708270704700BF23
:100BC00010B401704270837010BC70474078704759
:100BD0008078704738B5054CA4F190052046103C4C
:100BE00007F0F0FCAC42F9D138BD00BF64B5FF1F7F
:100BF0002DE9F04F85B0AC4B0293AC4BDFF8CCA2A3
:100C0000DFF8CCB203930026CDE00022A84B40468B
:100C1000494609F0E1FA09F041FF0746A54C98A3BF
:100C2000D3E9002344F82670DDE9000108F018FA42
:100C30000022A14B09F082FC002200238046894655
:100C4000B70009F001FF002800F00D810022984B49
:100C50004046494609F0C0FA09F020FF8646974C05
:100C600087A3D3E9002344F807E0DDE9000108F099
:100C7000F7F985A3D3E9002309F060FC00220023E3
:100C80008046894609F0E0FE002800F0E28000225C
:100C9000874B4046494609F09FFA09F0FFFE864619
:100CA000874C884B44F807E00022DDE9000108F09A
:100CB000D7F977A3D3E9002309F040FC00220023F1
:100CC0008046894609F0C0FE002800F0B880002266
:100CD000774B4046494609F07FFA09F0DFFE0746A8
:100CE000039C784B24F8027F0022DDE90001039485
:100CF00008F0B6F968A3D3E9002309F01FFC00222D
:100D000000238046894609F09FFE002800F08D8070
:100D10000022674B4046494609F05EFA09F0BEFEE4
:100D20000746029C674B24F8027F0022DDE90001A0
:100D3000029408F095F958A3D3E9002309F0FEFBCB
:100D4000002200238046894609F07EFE002862D0FA
:100D50000022574B4046494609F03EFA09F09EFEF4
:100D600007460022574B2BF8027FDDE9000108F00F
:100D700077F94BA3D3E9002309F0E0FB002200231D
:100D800004460D4609F060FEA0B30022484B204601
:100D9000294609F021FA09F081FE0136B6F5807F77
:100DA0002AF8020F34D0304609F05AFF46490AF0BB
:100DB0005FF809F06FFB32A3D3E90023CDE900010E
:100DC00008F04EF930A3D3E9002309F0B7FB002265
:100DD00000238046894609F037FE00287FF415AFCE
:100DE0000022334B4046494609F0F4F909F056FE1B
:100DF000074613E700222E4B2046294609F0EAF960
:100E000009F04CFE0136B6F5807F2AF8020FCAD1F0
:100E100005B0BDE8F08F0022254B4046494609F059
:100E2000D9F909F03BFE07469BE70022204B4046DC
:100E3000494609F0CFF909F031FE074671E7002273
:100E40001B4B4046494609F0C5F909F027FE074605
:100E500046E70022164B4046494609F0BBF909F027
:100E60001DFE86461CE70022114B4046494609F00C
:100E7000B1F909F013FE8646F1E600BFAFF300803A
:100E8000000000A0999901400000000000E05F40D0
:100E90000000000000FEAF40000000000032A34050
:100EA00000000000009899409EA0FF1FAEAEFF1FFB
:100EB0000000E03FB0B0FF1F00805940A0A4FF1F1A
:100EC000A0AAFF1F0000044000007F439EA8FF1F50
:100ED0009EA2FF1F70B50D4D14242E1901E055F888
:100EE000044FE4B22046012106F064FB2046084985
:100EF00006F0D8FAB542F2D10C2006F0C3FA054844
:100F000005F062FABDE87040FFF772BEF8FE00001F
:100F10003F540946048AFF1F0B282AD8F0B4154C09
:100F20002388984203D31348F0BC05F0E3BAC1F319
:100F30000727114B114E53F82730114AA568C1F30A
:100F40000747C9B256F8276052F821201B0200EB70
:100F5000400003EB064313442B54A26802441912C9
:100F60005170A26810441B148370F0BC014805F056
:100F7000C1BA7047048AFF1FA0A4FF1FB0B0FF1FB3
:100F8000A0AAFF1F082800D97047024B53F8200081
:100F9000FFF7C2BFD4FE0000022800D97047024B01
:100FA00053F82000FFF7B8BF10FF000005281ED837
:100FB000DFE800F01115090303110E4B33F811108F
:100FC000052803D970470C4B33F811100B4B13F85D
:100FD000200006F059B90A4B33F81110F0E7094B1D
:100FE00033F81110054B13F8200006F04DB900211D
:100FF000E6E700BFA0A8FF1FA0A2FF1FF8FE0000A9
:10100000B0AEFF1FA0A0FF1F2DE9F043DFF8DC808A
:101010002B4EDFF8DC902B4F2B492C4C2C4D85B000
:10102000404607F00FFB3246494640460AF0DEF9DB
:101030003846284907F006FB3246494638460AF04A
:10104000D5F92046244907F0FDFA294604F110009D
:1010500007F0F8FA6846214907F0F4FA4146684675
:1010600007F086FB014604F1200007F0FFFA68460E
:1010700007F0A8FA394604F1300007F0F7FA04F156
:101080004000174907F0DEFA04F15000154907F057
:10109000D9FA294604F1600007F0D4FA294604F190
:1010A000700007F0CFFA294604F1800007F0CAFA71
:1010B00032460D4900200AF099F905B0BDE8F083E9
:1010C000FC89FF1FD4B4FF1FE0FD0000E4B4FF1F44
:1010D00008FE0000E8FD0000F4FD000000FE000036
:1010E0000CFE000018FE0000D50B0000A0AEFF1F94
:1010F000C585000010B4182400210122047041604D
:1011000002724168027AC160027410BC704700BF6D
:1011100001F0070281F0040110B442F01802C1F39B
:10112000800100240270446001724168027AC1604B
:10113000027410BC704700BF02784BB2920010B42A
:1011400002F00C0203F003042243012404FA02F229
:1011500048F2214414406CB942F614041440A4B17E
:10116000027802F01802102A0BD003F0070343F0B4
:101170001003037081F00401C1F38001017210BCFF
:1011800070474268013A4260EFE744F2821414402B
:101190005CB903F0070381F0040143F01803C1F3C5
:1011A0008001037010BC01727047027802F01802CF
:1011B000082A02D142680132426003F0070381F03D
:1011C000040143F00803C1F38001037010BC0172F5
:1011D000704700BFC26843689A4204D043684168C0
:1011E000C160981A70470020704700BF027A03461A
:1011F00002F0FF0022B11A7C12B901221A74704762
:101200001A7A1A7400207047027A034602F0FF012E
:101210001AB9007C08B1197470471A7A1A74002040
:10122000704700BF0022027042707047007870471C
:1012300003788B4218BF0170704700BF43788B4220
:1012400018BF4170704700BF38B5054CA4F1900538
:101250002046103C07F0B6F9AC42F9D138BD00BFCA
:1012600008B7FF1F2DE9F041022184B0072006F0E6
:10127000A1F90221082006F09DF90221092006F0BB
:1012800099F91E4CDFF87880202647F2777701AD78
:1012900032460A21284602F0C7FE95E8070084E896
:1012A0000700204668220A2102F064FF20464FF61C
:1012B000FF72002102F0E2FF20464FF6FF7202218A
:1012C00002F0DCFF20463A46042102F0D7FF204618
:1012D0000022082102F0D2FF013620464FF6FF72AD
:1012E0000C2102F0CBFF232E04F10C0402D038F8BD
:1012F000027FCDE704B0BDE8F08100BF44B6FF1F18
:1013000030FF00002DE9F0412A4E88B001AD0024E5
:101310003019122102F0AEFE0C34242C25F8020BF9
:10132000F6D1DFF8A080244F00250C2101E018F849
:10133000011F08AA0B0902EB430301F00F0133F868
:101340001C3C43FA01F101F0070103A803ACFFF7CD
:10135000DFFE0FCC7E197851143520783074B42D0F
:101360007160B260F360E2D1144D154E00242B2160
:1013700002E015F8011F033408AA0B0902EB43032E
:1013800001F00F0133F81C3C43FA01F101F00101B7
:1013900081F0010103A8FFF76FF83319BDF80C10B5
:1013A0009DF80E2031530F2C9A70E2D108B0BDE8A1
:1013B000F08100BF44B6FF1F74B5FF1F1CFF000083
:1013C00028B6FF1F24FF0000214B2DE9F041054600
:1013D00000EB4000102103EB800002F04BFE1D4C9F
:1013E0001D4F064604F1B4080C2104E014344445B2
:1013F00010D017F8011FB5EB111FF7D101F00F0145
:1014000046FA01F1204601F007011434FFF794FE7B
:101410004445EED1114C124F04F105082B2301E095
:1014200014F8013FB5EB131F05D0444507F103073E
:10143000F6D1BDE8F08103F00F0146FA01F101F0A9
:10144000010181F001013846FFF71AF8EDE700BF0E
:1014500044B6FF1F74B5FF1F24FF00001CFF0000EF
:1014600028B6FF1F08B5072005F0B8FE0020FFF7DB
:10147000ABFF002202490720BDE8084005F032BE5C
:101480006514000008B5082005F0A8FE0120FFF74C
:101490009BFF002202490820BDE8084005F022BE5B
:1014A0008514000008B5092005F098FE0220FFF71A
:1014B0008BFF002202490920BDE8084005F012BE5A
:1014C000A514000008B5FFF7CDFEFFF71BFF0022B3
:1014D0000749072005F006FE00220649082005F00E
:1014E00001FE002204490920BDE8084005F0FABDCC
:1014F0006514000085140000A514000038B5284CC0
:1015000000250BE02046FFF77FFEA8B92046FFF735
:1015100061FE1434D0B90135092D1ED02046FFF7E5
:1015200065FE0028EED02846012101F091F9204601
:10153000FFF76AFE0028E9D00021284601F088F96B
:101540002046FFF747FE14340028E4D00146284621
:10155000013501F029F9092DE0D1124C002507E0F1
:101560002046FEF79DFF033488B90135062D15D0BE
:101570002046FEF787FF0028F2D00121284601F01F
:101580007FF92046FEF78CFF03340028EDD0284673
:101590000021013501F074F9062DE9D138BD00BFF5
:1015A00074B5FF1F28B6FF1F30B532493248334C9F
:1015B00085B007F047F8324A32492F4809F016FF44
:1015C0003149324807F03EF82D4A2E492F4809F09C
:1015D0000DFF2F492F4807F035F82F492F4807F006
:1015E00031F82F49684607F02DF82349684607F07F
:1015F000BFF801462B4807F039F8684606F0E2FFCD
:101600002249294807F032F82849294807F01AF8F2
:101610002849294807F016F81F49284807F012F80A
:101620001D49274807F00EF81B49264807F00AF81D
:10163000134A2549002009F0D9FE244802F0E8FCAD
:10164000234802F0E5FC234802F0E2FC04F1B40573
:1016500020461434FFF74EFDA542F9D11E4C04F18B
:101660001B0520460334FEF701FFAC42F9D105B05B
:1016700030BD00BFE0FD000068B6FF1F74B5FF1F5E
:10168000FC89FF1FC5850000E8FD000078B6FF1F3C
:10169000F4FD000088B6FF1F08FE000098B6FF1F8B
:1016A00000FE0000A8B6FF1FB8B6FF1F0CFE00002A
:1016B000C8B6FF1F18FE0000D8B6FF1FE8B6FF1F10
:1016C000F8B6FF1F08B7FF1F4912000044B6FF1FFE
:1016D00050B6FF1F5CB6FF1F28B6FF1F10B5074CA2
:1016E00004F1200006F06EFF04F1100006F06AFF1E
:1016F0002046BDE8104006F065BF00BF74B7FF1F6D
:101700002DE9F0411B4E88B0316801A803F098F92B
:101710000024032733191820D3F8108007F08AFA21
:101720000546414602F0C8FF2B78032B1FD00399D2
:101730000298013189000AF057FAC0B1039B029068
:101740005A1C40F8235003921034202CE2D10A484E
:1017500002F08EFF084901A803F080F9064802F064
:1017600095FF01A803F0A6F808B0BDE8F0818DF858
:101770001070E9E774B7FF1FB4B7FF1F70B50D4EC7
:101780003378012B04460D4605D0FFF7B9FF01233E
:10179000337000F049FC084B2A461968204603F0D4
:1017A00007F9002805DD29182046BDE8704001F042
:1017B0008DB870BD28B7FF1FC8B7FF1F10B588B020
:1017C000016801A803F03CF9182007F033FA044639
:1017D000012102F08BFF2378032B1BD00399029881
:1017E000013189000AF000FAA0B1039B02905A1C53
:1017F00040F823400392094802F03AFF074901A844
:1018000003F02CF9054802F041FF01A803F052F85B
:1018100008B010BD03238DF81030ECE7B4B7FF1FFC
:1018200030B589B00D46016801A803F009F9182008
:1018300007F000FA0446294602F062FF2378032BE2
:101840001BD003990298013189000AF0CDF9A0B1AB
:10185000039B02905A1C40F823400392094802F06F
:1018600007FF084901A803F0F9F8064802F00EFF47
:1018700001A803F01FF809B030BD03238DF8103024
:10188000ECE700BFB4B7FF1F2DE9F843DFF868812C
:10189000414C424D424F4349434EDFF86091404630
:1018A00006F0D0FE22462946404609F09FFD384604
:1018B0003E49DFF84C8106F0C5FE224629463846EF
:1018C00009F094FD30463A493A4F06F0BBFE2246F5
:1018D0002946304609F08AFD48463749374E06F01A
:1018E000B1FE22462946484609F080FD404634496B
:1018F000DFF8109106F0A6FE22462946404609F080
:1019000075FD38462F49DFF8008106F09BFE224620
:101910002946384609F06AFD30462B492B4F06F020
:1019200091FE22462946304609F060FD4846284986
:10193000284E06F087FE22462946484609F056FD05
:101940004046254906F07EFE22462946404609F0DB
:101950004DFD3846214906F075FE22462946384697
:1019600009F044FD30461E4906F06CFE06F11000F9
:101970001C4906F067FE06F120001B4906F062FED6
:1019800022461A49002009F031FD19491948BDE8DD
:10199000F84302F023BE00BFFC89FF1FC58500008D
:1019A000ECB7FF1F28FE0000FCB7FF1F30FE000051
:1019B00034FE0000C8B7FF1F3CFE00000CB8FF1F3C
:1019C00044FE000048FE000054FE000060B7FF1F08
:1019D00060FE000074B7FF1F6CFE000074FE000084
:1019E0007CFE00008CFE0000A0FE0000DD16000062
:1019F0008892FF1FB4B7FF1FA4B7FF1FDCB7FF1FFC
:101A00004CB7FF1F2CB7FF1F18B7FF1F10B51549A4
:101A100088B0044606F0F2FE01300FD0124802F002
:101A200027FE124B10489A68196802F0ADFC0E4868
:101A300002F02CFEFFF764FE08B010BD01A802F012
:101A4000FFFEA268216801A803F03AFB084B094A8F
:101A5000196801A8002302F0C7FF01A802F02AFFBD
:101A600008B010BDA4B7FF1FB4B7FF1FECB7FF1F2E
:101A7000FCB7FF1F7D17000010B50B4C4FF4E13190
:101A8000204602F0F3FD204602F0F2FD074B20460F
:101A90009A68196802F078FC204602F0F7FDBDE86C
:101AA0001040FFF72DBE00BFB4B7FF1FECB7FF1FFC
:101AB00070B54A4D296811F001048AB03DD04848FC
:101AC00002F0D2FC00280ADD441E454802F078FCF2
:101AD000013CC1B2434806F03BFE631CF5D14048CF
:101AE00002F08CFD88B9404C22683F4D5AB13F4B03
:101AF0001B680293029B41F288319B1A8B4234D8B7
:101B00003B4C22785AB30AB070BD3648364CFFF7CA
:101B10007DFF364B364A1B680193019921600023F3
:101B2000194603A8137006F08DFD03A92D4806F091
:101B3000CBFD03A806F046FDD6E7284605F06CFE6F
:101B40000028BCD02146274806F07CFD284605F039
:101B500069FE284A2849234809F048FCAFE740F6C7
:101B6000C412934209D80AB070BD244B204C002601
:101B70001E7000F06BFA2E602670214B03A81968C6
:101B800002F05EFF182007F055F805461D4902F0E7
:101B900093FD2B78032B1DD0059B0498591C8900BD
:101BA0000AF022F8B0B1059B04905A1C40F823506B
:101BB00005920B4802F05CFD094903A802F04EFFB4
:101BC000074802F063FD012303A8237002F072FEB0
:101BD0000AB070BD03238DF81830EAE7D8B7FF1FAD
:101BE000B4B7FF1F3CB7FF1F5CB7FF1F78BFFF1FD5
:101BF00070B7FF1FFC89FF1FC585000028B7FF1FB6
:101C00000CB8FF1F38FF000038B5054CA4F1900553
:101C10002046103C06F0D6FCAC42F9D138BD00BFDE
:101C2000CCB8FF1FF0B5002185B000F11806174FA2
:101C3000044606F007FD3046002106F003FD394654
:101C4000684606F013FD6946204606F03DFD6846ED
:101C500006F0B8FC00250023636139462574684608
:101C600006F004FD6946304606F02EFD684606F093
:101C7000A9FC0123204684F8295084F83050E562FD
:101C800084F8283084F82A3005B0F0BD1CB8FF1F56
:101C900070B58B6884B0044633B9194906F086FDE7
:101CA0000546D0B104B070BD0D4606F07FFD064676
:101CB0000028F7D12946684606F0D8FC6946204638
:101CC00006F002FD684606F07DFC012384F82960D9
:101CD000267484F8283004B070BD6846084906F0C0
:101CE000C5FC6946204606F0EFFC684606F06AFC33
:101CF000012384F82950257484F8283004B070BD7D
:101D00001CB8FF1F037C23B100220123027480F85A
:101D10002830704738B590F82A3004460D461BB17C
:101D2000406909F085F938B90123656184F82A30E2
:101D3000237484F8283038BD237C002BF4D0FAE7D4
:101D4000C36A8B4218BFC162704700BF90F8280079
:101D5000704700BF90F82900704700BF90F8293005
:101D60008B4204D0012380F8291080F82830704776
:101D7000F0B590F8283085B00446FBB1037C03B37E
:101D800090F82A302BB390F8293040692668002B50
:101D90000CBF2027462708F07DFB04F13005CDE974
:101DA00002010097334628460F4A14210AF026F90B
:101DB0000023284684F8283005B0F0BD00F1300536
:101DC000F6E700F130052846142208490AF076FCAF
:101DD000EEE782690368009200F130052846044A64
:101DE00014210AF00BF9E3E748FF000008FE0000A9
:101DF00058FF0000037C0BB1C06A7047184670475B
:101E00002DE9F047DFF8F890314D324FDFF8F480DC
:101E10003149324C324EDFF8F0A084B0484606F02B
:101E200011FC2A463946484609F0E0FA40462D4959
:101E300006F008FC2A463946404609F0D7FA204603
:101E4000294906F0FFFB314604F1100006F0FAFBC9
:101E50006846264906F0F6FB4946684606F088FCC7
:101E6000014604F1200006F001FC684606F0AAFBDA
:101E7000414604F1300006F0F9FB04F140001C4932
:101E800006F0E0FB04F150001A4906F0DBFB314696
:101E900004F1600006F0D6FB314604F1700006F054
:101EA000D1FB314604F1800006F0CCFB2A461249F2
:101EB000002009F09BFA5046104906F0C3FB2A4661
:101EC0003946504609F092FA04B0BDE8F08700BFE9
:101ED000FC89FF1FC5850000E0FD00004CB8FF1F16
:101EE00008FE0000E8FD0000F4FD000000FE000018
:101EF0000CFE000018FE0000091C000064FF00003A
:101F00002CB8FF1F3CB8FF1F1CB8FF1F10B5074CB3
:101F100004F1200006F056FB04F1100006F052FB1D
:101F20002046BDE8104006F04DBB00BF10BBFF1FB0
:101F300038B5054CA4F190052046103C06F042FB54
:101F4000AC42F9D138BD00BF78BEFF1F38B5074C91
:101F5000A4F5D875303C04F1180006F033FB04F109
:101F6000080006F02FFBAC42F4D138BDECBAFF1FDD
:101F700038B5074CA4F51975443C04F1180006F077
:101F800021FB204606F01EFBAC42F5D138BD00BF58
:101F9000C8BDFF1FF0B591B0214F00EB40042401F4
:101FA0004FF07E560546169800900296019604A8BA
:101FB0003E1900F0B5FE9DF81020059B3A5504F13E
:101FC0000800736006A9384406F07EFB04F118008F
:101FD0000AA9384406F078FB0E9A0F9BB262F362AE
:101FE0000AA806F0EFFA06A806F0ECFA0D4B05EB8E
:101FF000051503EB8505314604A800F0E1FE04A9B0
:102000002846FFF745FE04A806F0DCFA304600F04B
:10201000D5FE01462846FFF793FE11B0F0BD00BF84
:102020003CB9FF1F64BBFF1F08B50748FFF7FEF868
:1020300018B901210448FFF7FBF84FF47F41002055
:10204000BDE80840FEF7A8BF0CBBFF1F38B50C4821
:10205000FFF7ECF870B90B4C04F5197520464434C1
:10206000FFF750FEAC42F9D107490020BDE83840E7
:10207000FEF792BF00210248FFF7DAF8EBE700BF56
:102080000CBBFF1F64BBFF1F0088FF0030B5A548D5
:1020900083B0FEF79BFD0546A248FEF799FD044676
:1020A000002858D0012807D0022800F00982032810
:1020B00000F09C8003B030BD002D00F0E580012DC4
:1020C00040F0B281984C00940022234611461046FD
:1020D000FFF760FF00222846234611460094FFF7D1
:1020E00059FF00222346114600940220FFF752FFB9
:1020F00000222346114600940320FFF74BFF8B4B31
:1021000000934FF6FF728A4B00210420FFF742FF35
:10211000884B00934FF0FF12874B00210520FFF7FB
:1021200039FF864B0093864A864B00210620FFF735
:1021300031FF854B0093854A854B00210720FFF72F
:1021400029FF844B00936FF07F42834B00210820CE
:10215000FFF720FFAEE7814B00930146804B724DA5
:102160006FF07F42FFF716FF7E4B009321467E4BB8
:102170004FF47F420120FFF70DFF7C4B0093214677
:102180007B4B4FF47F420220FFF704FF2B46224691
:10219000214600950320FFF7FDFE764B0093214674
:1021A000754BFF220420FFF7F5FE744B0093214688
:1021B000734BFF220520FFF7EDFE724B0093214683
:1021C000714BFF220620FFF7E5FE704B009321467E
:1021D0006F4BFF220720FFF7DDFE00952B462246BE
:1021E00021460820FFF7D6FE03B030BD0021694B21
:1021F00000930846684B4FF6FF72FFF7CBFE674B24
:1022000000934FF6FF72664B00210120FFF7C2FEDC
:10221000644B00934FF6FF72634B00210220FFF7DF
:10222000B9FE624B00932046614B4FF6FF720021CE
:10223000FFF7B0FE5F4B0093FF225F4B00210420AD
:10224000FFF7A8FE5D4B0093FF225D4B00210520A8
:10225000FFF7A0FE5B4B0093FF225B4B00210620A3
:10226000FFF798FE594B0093FF22594B002107209E
:10227000FFF790FE574B0093574A584B0021082018
:10228000FFF788FE03B030BD554B00932946284622
:10229000544B4FF47F02FFF77DFE534B00932046D3
:1022A0002946524B524AFFF775FE524B009329467E
:1022B000514B4FF47F420220FFF76CFE1B4B009303
:1022C00029461B4B4FF6FF720320FFF763FE4B4B73
:1022D000009329464A4BFF220420FFF75BFE494B3F
:1022E00000932946484B3C4A0520FFF753FE474BD5
:1022F00000932946464B474A0620FFF74BFE464BC4
:1023000000932946454B6FF07F420720FFF742FEBE
:10231000434B00932946434B2F4A0820FFF73AFED0
:10232000C8E600BF88BEFF1F08FE000014000100C1
:102330000C0001006C00010064000100800001003D
:1023400000BBFF00780001008C00010088BBFF008B
:1023500088000100980001009400010074FF000053
:1023600068FF000080FF00007CFF000090FF00007D
:1023700088FF0000A0FF000098FF0000B0FF0000F1
:10238000A8FF0000C4FF0000B8FF0000D8FF000055
:10239000D0FF0000640101005C0101007801010030
:1023A000700101008C01010084010100A001010005
:1023B00098010100B8010100AC010100D001010049
:1023C000C4010100E8010100DC010100000201007C
:1023D000F401010018020100FF00A0000C0201003E
:1023E000E4FF0000E0FF0000F4FF0000ECFF00004D
:1023F0000088FF0004000100FCFF00002400010031
:102400001C000100340001002C0001004400010008
:102410003C00010066FFAA00540001004C000100CE
:10242000600001005C0001000021464B009308465B
:10243000454B4FF47F02FFF7ADFD444B0093204620
:10244000434B444A0021FFF7A5FD434B00934FF453
:102450007F42424B00210220FFF79CFD404B00933E
:102460004FF6FF723F4B00210320FFF793FD3E4BD9
:102470000093FF223D4B00210420FFF78BFD3C4BD6
:1024800000933C4A3C4B00210520FFF783FD3B4B6A
:1024900000933B4A3B4B00210620FFF77BFD3A4B64
:1024A00000936FF07F42394B00210720FFF772FD48
:1024B000374B0093002211460820FFF76BFDF9E52A
:1024C000334D009500222B4611461046FFF762FD62
:1024D00000222B46114600950120FFF75BFD0022EC
:1024E00020462B4611460095FFF754FD00222B464F
:1024F000114600950320FFF74DFD00222B461146A3
:1025000000950420FFF746FD00222B46114600955A
:102510000520FFF73FFD00222B46114600950620BF
:10252000FFF738FD00222B46114600950720FFF7E4
:1025300031FD002200952B4611460820FFF72AFDA9
:10254000B8E500BFA8000100A0000100C000010024
:10255000B40001000088FF00D8000100CC00010099
:10256000F0000100E400010008010100FC0001008E
:1025700020010100FF00A00014010100380101004A
:1025800066FFAA002C010100500101004401010076
:1025900008FE000030B51C4C89B06846002106F0EA
:1025A00051F804F5D87502E03034AC4227D020460B
:1025B00000F018FC0028F7D1144904A806F042F8EE
:1025C00004A9684606F080F804A805F0FBFF214640
:1025D00004A800F0FDFB04A9684606F0B5F804A8BD
:1025E00005F0F0FF009904A806F02CF804A8FFF706
:1025F000E5F8303404A805F0E5FFAC42D7D16846D1
:1026000005F0E0FF09B030BD3CB9FF1F2802010012
:1026100070B5194C194D206800EB001084B005EB23
:102620008000FFF793FB40B92368134A0133082B5E
:10263000C8BF0023136004B070BD266806EB061007
:1026400005EB8000FFF794FB0146684605F0FAFFB2
:1026500069463046FEF776FA684605F0B3FF26680D
:1026600006EB061005EB8000FFF7C4FB0146304681
:10267000FEF788FCD8E700BF60BBFF1F64BBFF1FED
:1026800010B5002882B001DB032912D900241148BB
:10269000FEF79EFAA04218BF20464FF0000104F159
:1026A000010408BF6421FEF781FC042CEFD102B0C5
:1026B00010BDCBB2C2B2002101A8FEF781FA019A87
:1026C000044B110C99701A80FFF7E0FCFFF762FFD2
:1026D000DCE700BF88BEFF1F70B5274C274D92B0C6
:1026E00001A8FEF79FFDBDF804302380204600219D
:1026F000FEF79EFD20460021FEF7A0FD05F51976A8
:102700000DF1470401A8FFF78DFA01A9284605F04D
:10271000DBFF9DF81420069B2A7407A905F1180019
:102720006B6105F0D1FF9DF82E200C9B9DF82C00CD
:102730009DF82D1085F82A20EB6285F8280085F891
:10274000291005F130020DF1330313F8011F02F8CF
:10275000011BA342F9D107A805F034FF443501A8B5
:1027600005F030FFB542CDD100210846FFF788FFC4
:10277000FFF76CFC12B070BD0CBBFF1F64BBFF1FEA
:10278000012801D00020704708B50648FEF71EFA60
:10279000012801D9002008BD0248FEF717FA0130D0
:1027A000C0B208BD88BEFF1F30B589B004460D46D3
:1027B0006846224905F05AFF082C31D8204B04EB1B
:1027C000041003EB8000FFF7C5FA90BB1D49684673
:1027D00005F0BAFF1C4B04EB440403EB0414204641
:1027E00000F0EAFA214604A800F0F2FA04A96846CB
:1027F00005F0AAFF04A805F0E5FE204600F0F0FA77
:102800000446284608F02CFA214608F07DFA0146D5
:102810006846FFF705F8684605F0D4FE09B030BDFC
:102820000849684605F090FF684605F0CBFE09B000
:1028300030BD0649684605F087FFCBE7FCB8FF1FAF
:1028400064BBFF1FDCB8FF1F3CB9FF1F50BBFF1F5D
:1028500009B1082800D9704710B5084C00EB0010EA
:1028600004EB80042046FFF775FA80F00101C9B23D
:102870002046BDE81040FFF771BA00BF64BBFF1FE0
:1028800010B5044639B103280CD92046FF21BDE814
:102890001040FEF78BBB002803DB032C08DD052C62
:1028A000F5DD10BDFFF76CFF2146FFF7E9FEECE711
:1028B0000548FEF78DF984420CBF642100212046B3
:1028C000BDE81040FEF772BB88BEFF1F2DE9F04740
:1028D000214D224C84B080468A4605F5197704E0E4
:1028E0004435BD4204F130042ED0204600F064FA95
:1028F00006460028F4D12146684600F069FA52469F
:102900000099404602F054F88146684605F05AFEA8
:10291000B9F1000F4046E3DD02F09EF80028314691
:10292000404614DD02F040F8314680B1404601F0E7
:10293000CFFF01F063FF014628464435FFF7EAF96F
:10294000BD4204F13004D0D104B0BDE8F087284680
:10295000FFF7D8F9C4E700BF64BBFF1F3CB9FF1FF6
:1029600030B56F496F48704C85B005F06BFE6F4A0B
:102970006F496C4808F03AFD6E496F4805F062FEF9
:102980006A4A6B496C4808F031FD6C496C4805F0A7
:1029900059FE6C496C4805F055FE6C49684605F0D7
:1029A00051FE6049684605F0E3FE0146684805F0BF
:1029B0005DFE684605F006FE5F49664805F056FE76
:1029C0006549664805F03EFE6549664805F03AFEF1
:1029D0005C49654805F036FE5A49644805F032FE08
:1029E0005849634805F02EFE504A6249002008F01D
:1029F000FDFC6149614805F025FE4C4A4C495F48A1
:102A000008F0F4FC5E495F4805F01CFE474A48495F
:102A10005C4808F0EBFC5C495C4805F013FE434A57
:102A200043495A4808F0E2FC59495A4805F00AFE61
:102A30003E4A3F49574808F0D9FC5749574805F0E6
:102A400001FE3A4A3A49554808F0D0FC54495548E5
:102A500005F0F8FD354A3649524808F0C7FC52499E
:102A6000524805F0EFFD314A3149504808F0BEFCAC
:102A70004F49504805F0E6FD2C4A2D494D4808F0D5
:102A8000B5FC4D494D4805F0DDFD284A28494B4825
:102A900008F0ACFC4A494B4805F0D4FD234A2449D0
:102AA000484808F0A3FC4849484805F0CBFD484990
:102AB000484805F0C7FD4849484805F0C3FD1B4A92
:102AC0004749002008F092FC4649474805F0BAFD06
:102AD000164A1749444808F089FC4448FEF76AF84A
:102AE00004F5D8752046303400F054F9A542F9D1E8
:102AF0000E4A3F493F4C002008F078FC3E48FEF764
:102B000091FB04F5197520464434FFF78BF8AC426D
:102B1000F9D1064A3949002008F068FC05B030BDFB
:102B2000E0FD00000CB9FF1F3CB9FF1FFC89FF1F2F
:102B3000C5850000E8FD0000D8BDFF1FF4FD0000C2
:102B4000F8BDFF1F08FE000008BEFF1F00FE0000CA
:102B500018BEFF1F28BEFF1F0CFE000038BEFF1F5F
:102B600018FE000048BEFF1F58BEFF1F68BEFF1FB3
:102B700078BEFF1F311F000028FE000040BBFF1F72
:102B800030FE0000E8BDFF1F34FE00001CB9FF1F2F
:102B90003CFE0000FCBAFF1F44FE00002CB9FF1FE2
:102BA00048FE0000C8BDFF1F54FE0000ECBAFF1F26
:102BB00060FE0000FCB8FF1F6CFE0000DCB8FF1FC9
:102BC00074FE000050BBFF1F7CFE000010BBFF1F07
:102BD0008CFE000020BBFF1FA0FE000030BBFF1FCB
:102BE0000D1F000064FF0000ECB8FF1F88BEFF1F30
:102BF0004D1F000064BBFF1F0CBBFF1F711F0000B7
:102C000038B5054CA4F190052046103C05F0DAFCDF
:102C1000AC42F9D138BD00BF2CBFFF1F08B5012160
:102C2000022004F0C7FC01210220BDE8084004F0A6
:102C3000BBBC00BF2DE9F043DFF8DC802B4EDFF892
:102C4000DC902B4F2B492C4C2C4D85B0404605F089
:102C5000F9FC32464946404608F0C8FB3846284948
:102C600005F0F0FC32464946384608F0BFFB2046E6
:102C7000244905F0E7FC294604F1100005F0E2FCC8
:102C80006846214905F0DEFC4146684605F070FDC6
:102C9000014604F1200005F0E9FC684605F092FCCD
:102CA000394604F1300005F0E1FC04F14000174919
:102CB00005F0C8FC04F15000154905F0C3FC294695
:102CC00004F1600005F0BEFC294604F1700005F037
:102CD000B9FC294604F1800005F0B4FC32460D49E8
:102CE000002008F083FB05B0BDE8F083FC89FF1FDE
:102CF0009CBEFF1FE0FD0000ACBEFF1F08FE0000F1
:102D0000E8FD0000F4FD000000FE00000CFE0000E5
:102D100018FE0000012C00008CBEFF1FC5850000BE
:102D20002DE9F04F044685B000F1080715468A46A4
:102D300004F11806384600219B46DDF83C90DDF88A
:102D4000408025F07F4505F07DFC3046002105F0F0
:102D500079FC594684F800A06560684605F072FC6D
:102D60006946384605F0B0FC684605F02BFC0E9924
:102D7000684605F067FC6946304605F0A5FC6846E4
:102D800005F020FC2046C4F82890C4F82C8005B03B
:102D9000BDE8F08F10B584B0064B00934FF07E5124
:102DA00000220291019111460446FFF7B9FF204627
:102DB00004B010BD08FE00000078704740687047FE
:102DC00010B50831044605F051FC204610BD00BF87
:102DD00010B51831044605F049FC204610BD00BF6F
:102DE000806A7047006AB0FA80F04009704700BFFF
:102DF00000207047704700BF2DE9F04F85B099461D
:102E0000BDF93870BDF83CA0BB1AC1EB090B002B13
:102E1000B8BF5B42BBF1000FB8BFCBF1000B5B4505
:102E20000D4616460093804648DC4D453A463346EB
:102E30004CDC194613460A46C5EB09019B1A89B2B8
:102E4000002B0CB2B8BF5B4204EBD474BE42ACBFE3
:102E50004FF0FF3201224D45039102924FEA640484
:102E600029DC9BB201930DE0D8F80070BF69B84728
:102E7000019BE41AA3B21CB20135002C2DB211DB68
:102E8000A94518DB009B5B452A4653463146404620
:102E9000EADCD8F800205346976929463246404676
:102EA000B847E5E7029A1644039AA94502EB0304E2
:102EB00036B224B2E6DA05B0BDE8F08F4A462B46BA
:102EC000B94635464D4517461E46B2DD30462946C1
:102ED0003E464D4607468946AEE700BF10B404683B
:102EE0002469A44610BC604730B40468BDF808509B
:102EF0000295A46BA44630BC604700BF30B40468A0
:102F0000BDF808500295E46BA44630BC604700BF92
:102F100070B40468BDF90C60BDF8105003960495B8
:102F2000246CA44670BC6047704700BF10B582B0E7
:102F3000B0F90C2001910168009200220C6CB0F9EC
:102F40000A301146A04702B010BD00BF704700BF55
:102F500001F003010129017606D0032904D0C288BB
:102F600003894281838170470289C38842818381BA
:102F7000704700BF2DE9F0410568134E6F6986B0B8
:102F8000B7420446BDF8308010D1013B13441BB258
:102F90000093CDF804800B46AD6A2046A84723680D
:102FA000DB6AB3420AD106B0BDE8F0810593049212
:102FB0000391B84703A925680EC9E6E7204606B085
:102FC000BDE8F041184700BF292F00002DE9F0416E
:102FD0000568124E6F6986B0B7420446BDF830806E
:102FE0000FD1013BCDF804800B4400921BB2AD6AB7
:102FF0002046A8472368DB6AB3420AD106B0BDE881
:10300000F081059304920391B84703A925680EC97E
:10301000E7E7204606B0BDE8F0411847292F000039
:103020002DE9F04F0568DFF858B06F6985B05F454E
:103030000646BDF93890BDF83CA00C46904615D127
:103040001F19BC420CDACDF800A0214601342D6ACC
:103050004B464246304624B2A847BC423568F2DBB4
:10306000EB6A5B4507D105B0BDE8F08F0393B84725
:103070003568039BE4E7304605B0BDE8F04F1847DC
:10308000292F00002DE9F04387B099420546BDF98C
:103090003840BDF83C6025D0A24212D00768DFF866
:1030A0008080D7F81490C14532D18DE85000284671
:1030B000BC6AA0472B68DB6A434524D107B0BDE852
:1030C000F083994202DD08461946034628680E96A9
:1030D000C46B01335B1A1BB22846A44607B0BDE897
:1030E000F0436047A24202DD134622461C46286890
:1030F0000E96631C846B9B1A1BB22846A44607B02D
:10310000BDE8F0436047284607B0BDE8F0431847E4
:10311000059304920391C84703A92F680EC9C4E719
:10312000292F00002DE9F04FD0F800E0DFF8909053
:10313000DEF814B083B0CB450446BDF93080BDF84D
:1031400034A00D4617461E4631D1CDF800A0DEF85A
:1031500024B0294633463A462046D8472368CDF85E
:1031600000A008F1FF323A44D3F824B0294612B245
:1031700033462046D8472368CDF800A02946D3F827
:1031800020B03A4643462046D8472068CDF800A0F4
:10319000711E29444346056A09B23A462046A847AB
:1031A0002368DB6A4B4506D103B0BDE8F08FD847F2
:1031B000D4F800E0C9E7204603B0BDE8F04F184757
:1031C000292F0000F0B4002401254FF6FF76094FA7
:1031D000076004710476C48104828476C461C57575
:1031E0008575457686824682C180028141818281D1
:1031F000F0BC7047480201002DE9F04F91B08346C2
:103200000591C169BDF8680006909DF87400BDF88D
:103210006C709DF870A0039002929946002900F00E
:10322000CC800B7A48680A68C3EB0903DBB2154609
:1032300000EBC30230F83360D3780993BAF1010F81
:1032400092F9053092F802800E9392F9064079D9EE
:10325000BDF93830089323B20B93A94BDBF800205B
:103260000F93194653698B4240F0A280099B002BB3
:1032700053D0BDF808300C930021234407910D93DF
:103280000F460C46A946B8F1000F3FD0BDF81C1000
:103290000B9BBDF80C000297CB1813FB00F30C98A6
:1032A00003440D981BB2014404930BB20A9300250A
:1032B00005E00135EBB264009845E4B223D9029BE6
:1032C0002B44590703D1731C19F806409EB22306FC
:1032D000EFD5089BE918059B11FB0AF1BAF1010F24
:1032E000194402D1039B012B1ED0069B0193039B23
:1032F0000093D369049A1F4609B253465846B8470B
:10330000DBF80020D5E7029F4744FFB2079B0999ED
:1033100001330793DBB29942B5D8D36A0F9A93422F
:1033200041D111B0BDE8F08F0E9B059959189369F2
:103330000A9A29441F4609B2069B5846B847DBF84B
:103340000020B6E7039B012B82D800230B93089340
:1033500083E70799099A0131013A49B212F0FF0255
:103360000791099260D1069A4A454F4617D0BAF1A3
:10337000010F03D1039A012A00F0B5800A9A089838
:1033800002EB8201039AD2008DE88400084401B266
:10339000DC69029A53465846A047DBF80030DB6AE6
:1033A0000F9A9342BDD0584611B0BDE8F04F184770
:1033B00058469847DBF8002058E7BBF90A300599D2
:1033C0008B42AEDDBBF90C3002988342A9DD0623A7
:1033D00013FB0A13002BA4DD039B00EBC303002B9C
:1033E0009FDD9BF81A3033B9B9F1AF0F84BF09F1F3
:1033F00001035FFA83F9424ADBF800300F9211466D
:103400005A698A426AD1BDF81420089205220992AD
:10341000002207921FFA8AF20A92CDF830900FFA32
:103420008AF2B946039F05920799BDF83040089D7E
:103430000522104610FB04120A98324C0646084634
:1034400001FB0651A65C15FA80F209B212B2049192
:103450000B92082400251CE0BAF1010F01D1012FC5
:1034600024D0069A0192029A009705FB0722D3F80E
:103470001C800499059B12B25846C047DBF8003007
:10348000013C013514F0FF046DB24FEA56063FF4DB
:1034900060AFF007E0D4069A4A45F1D0BAF1010FC7
:1034A00001D1012F0ED0CDF80490DCE7029AD3F8B9
:1034B00018800B99069BAA1812B25846C047DBF831
:1034C0000030DDE7029AD3F818800B99AA184B4612
:1034D00012B25846C047DBF80030D1E75846904753
:1034E000DBF800308FE70899CDF8009005311C6AB1
:1034F000029A082309B25846A047DBF800304EE78D
:10350000292F000098020100F0B5C36985B0044678
:103510003BB30A296FD00D294FD01A7A91424CD370
:10352000587A884249D38A1A5D68D2B205EBC2053F
:10353000AA78002A56D0E878002853D0607E002868
:103540003ED095F905E0B4F90E00A67DB4F90A70F5
:10355000724406FB0202BA4269DCE77DB4F910202E
:1035600034E00A295CD00D2927D0427E002A50D0B1
:10357000B0F90E00A57DB4F90A60062212FB05021F
:10358000B242E67D42DD228AE38102EBC60212B23C
:1035900018462282B4F814E0678A03960B46029517
:1035A00001468DE880402046FFF726FEA37DE28994
:1035B00003EB430302EB4303E381012005B0F0BDBD
:1035C000A67DE77DB4F90E00B4F91020B4F814E03C
:1035D0000397678A02960B468DE880400146204695
:1035E000FFF70AFE2979E389A27D012001FB02335E
:1035F000E38105B0F0BD0022C2819A7AC17D038AC1
:1036000001FB02330382012005B0F0BDB4F91020A4
:10361000C0E7857DC67DB4F91020B0F90E00B9E78A
:10362000028AC17DC38102EBC1030382C5E700208A
:10363000E0819B7A228AE77D03FB072212B2228275
:10364000C4E700BF11B18175C17570470121817553
:10365000C1757047F0B5047EBDF81450022C75D0CA
:10366000032C6ED0012C32D0002A79DBB0F908404F
:10367000944265DD002978DBB0F906605818B04245
:10368000C4BF731A1BB2002B5ADD002A1046B8BF04
:10369000D01D012440F3CF0002F00702704E01EB71
:1036A000C01104FA02F2A5423144D2B200F0A48063
:1036B000C0F09580022D43D1013B11FA83F04B1EDF
:1036C00013F8011F514083421970F9D1F0BDC4882D
:1036D000013CA21A12B2002A7BDBB0F906409442E8
:1036E0002EDD00293DDBB0F908605818B042C4BF98
:1036F000731A1BB2002B23DDC9B2C808584C02EB69
:10370000C01211F00701DBB204EB020039D0C1F1A5
:103710000801C9B2534E8B42765C2AD2C3EB010E2C
:10372000FF2747FA0EF7012D06EA070674D06ED37D
:10373000022D40F09480A75C7E40A6548B421DD29F
:10374000F0BD0489E41A611A09B2C4E70689C48885
:10375000013EB21AE41A12B2611A002A09B285DADD
:10376000F0BD0B441BB20021BDE70B441BB200218E
:1037700082E7012D50D04AD3022DDCD05B1ADBB298
:103780008030072B18D9022D4ED0A3F10806C6F3BE
:10379000C406B11C00EBC111012D0CBFFF24002495
:1037A00000F1800202F8804C80328A42FAD1013660
:1037B00000EBC61003F00703002BC1D02A4A012DED
:1037C000D35C2DD006D3022DBAD1027853400370BA
:1037D000F0BDF0BD027822EA03030370F0BD013BA7
:1037E000D24311FA83F0D2B24B1E13F8011F1140DD
:1037F00083421970F9D1F0BD013B11FA83F04B1EE1
:1038000013F8011F114383421970F9D1F0BDA75C71
:1038100027EA0606A65491E7A75C3E43A6548DE727
:10382000027813430370F0BDA3F10805C5F3C40586
:10383000AC1C00EBC41400F1800212F8801CC943D8
:1038400002F8801C8032A242F7D1013513F0070341
:1038500000EBC5103FF474AF034AD35CB5E7F0BD8D
:10386000288AFF1F208AFF1F188AFF1FF0B5047ED9
:10387000BDF81450022C76D0032C6FD0012C37D019
:1038800000297ADBB0F906408C4230DD002A79DB72
:10389000B0F908609818B042C4BFB31A1BB2002B2D
:1038A00025DDD2B2D008754C01EBC01112F0070231
:1038B000DBB204EB010071D0C2F10802D2B2704E4B
:1038C0009342B65C62D2C3EB020EFF2747FA0EF7B3
:1038D000012D06EA070600F0AC80C0F0A580022D9D
:1038E00040F0CA80675C7E406654934253D2F0BD7C
:1038F000C488E41AA21A12B2002977DBB0F9084092
:103900008C42F4DD002A39DBB0F906609818B04229
:10391000C4BFB31A1BB2002BE9DD00290846B8BFAB
:10392000C81D012440F3CF0001F00701534E02EB04
:10393000C01004FA01F1A54206EB0002C9B268D03A
:103940005AD3022DD3D1013B12FA83F0531E13F840
:10395000012F4A4083421A70F9D1F0BD0489013C1D
:10396000611A09B2C8E7C6880489013E711AE41ACF
:1039700009B2A21A002912B284DAF0BD13441BB2B4
:103980000022C1E713441BB2002281E7012D50D071
:103990004AD3022DA6D09B1ADBB28030072B18D950
:1039A000022D4ED0A3F10806C6F3C406B11C00EBED
:1039B000C111012D0CBFFF24002400F1800202F888
:1039C000804C80328A42FAD1013600EBC61003F0F7
:1039D0000703002B8BD02B4A012DD35C2DD006D3AF
:1039E000022D84D1027853400370F0BDF0BD0278FF
:1039F00022EA03030370F0BD013BC94312FA83F0CE
:103A0000C9B2531E13F8012F0A4083421A70F9D12C
:103A1000F0BD013B12FA83F0531E13F8012F0A4345
:103A200083421A70F9D1F0BD675C27EA0606665436
:103A30005BE7675C3E43665457E7027813430370C5
:103A4000F0BDA3F10805C5F3C405AC1C00EBC4141C
:103A500000F1800111F8802CD24301F8802C8031D4
:103A6000A142F7D1013513F0070300EBC5103FF475
:103A70003EAF044AD35CB5E7F0BD00BF288AFF1F04
:103A8000208AFF1F188AFF1F002905DB10B4B0F938
:103A90000A408C4201DC10BC7047002AFBDBB0F905
:103AA0000C409442F7DD047E022C4AD0032C42D015
:103AB000012C04D1C0880138801A0A4601B2012BBA
:103AC00027D013D3022BE6D1002A1346B8BFD31D4B
:103AD00043F3CF0301EBC3111E4C02F00702635CFA
:103AE000012000FA02F25A406254D4E7002A134639
:103AF000B8BFD31D43F3CF0301EBC311154C02F044
:103B00000702635C012000FA02F223EA0202625417
:103B1000C1E7002A1346B8BFD31D43F3CF0301EB1F
:103B2000C3110C4C02F00702635C012000FA02F2A0
:103B30001A436254AFE700890138401A114602B2B5
:103B4000BDE7C4880089013C0138611A821A09B2B4
:103B500012B2B4E7288AFF1F38B5202204460D466A
:103B60008021FFF72FFBFF23064A84F8255084F8B5
:103B7000223084F8263084F8243084F82330226000
:103B8000204638BDA00701004FF400720021014813
:103B900007F0D8BF288AFF1FF0B590F92230013313
:103BA00083B004460F463DD0012190F8260003F073
:103BB000FBFC002194F8240003F0F6FC002194F8AB
:103BC000260003F0F1FC94F827308BB1214B1A68E2
:103BD0004FF00043D3625763D36A002BFCDA936B38
:103BE00094F82600012103B0BDE8F04003F0DCBCEE
:103BF00008268025002194F8230003F0D5FC17EA5D
:103C000005034FF0010194F8220008BF194603F0A4
:103C1000CBFC012194F82300CD4003F0C5FC013E0C
:103C2000E8D1DDE70C4D90F82010284601F0AEFDFC
:103C30002846002101F080FA3946284601F07CFA36
:103C400000236A7B296900932846012301F000FFC5
:103C500003B0F0BD6091FF1F50BFFF1FF0B50D46D0
:103C600090F9221080F82020013187B0044680F8B6
:103C700021501F4600F0AE80012190F8240003F08F
:103C800099FC012194F8260003F094FC94F8273065
:103C9000002B00F0E080874E304602F057FBF37AAD
:103CA000002B40F0E8803368834AD968914206D0FF
:103CB000824E834883491E60DA6018611960E7B15B
:103CC00094F92500002818DBC0B2012103F072FC32
:103CD000012194F8250003F067FC012003F094FC17
:103CE000002194F8250003F05FFC0A2003F08CFC0F
:103CF000012194F8250003F057FCAE212046FFF780
:103D00004BFFD5212046FFF747FF80212046FFF7D4
:103D100043FFA8212046FFF73FFF1F212046FFF762
:103D20003BFFD3212046FFF737FF00212046FFF756
:103D300033FF40212046FFF72FFF8D212046FFF75C
:103D40002BFF012D5AD014212046FFF725FF2021FB
:103D50002046FFF721FF00212046FFF71DFFA1218C
:103D60002046FFF719FFC8212046FFF715FFDA218B
:103D70002046FFF711FF02212046FFF70DFF8121AA
:103D80002046FFF709FF8F212046FFF705FFD921C5
:103D90002046FFF701FFF1212046FFF7FDFE2046F8
:103DA000DB21FFF7F9FE20464021FFF7F5FE204614
:103DB000A421FFF7F1FE2046A621FFF7EDFE2046E5
:103DC0002E21FFF7E9FE2046AF2107B0BDE8F04005
:103DD000FFF7E2BE3C4B3D4A597B18690492002331
:103DE00002224FF0120E13260592039300931A46F7
:103DF000CDF808E0019601F0C7FB60E720461021EE
:103E0000FFF7CAFE20462021FFF7C6FE204600210C
:103E1000FFF7C2FE2046A121FFF7BEFE2046C821C3
:103E2000FFF7BAFE2046DA21FFF7B6FE2046022150
:103E3000FFF7B2FE20468121FFF7AEFE20468F211C
:103E4000FFF7AAFE2046D921FFF7A6FE2221204631
:103E5000FFF7A2FEA3E7012194F8220003F0AAFBDA
:103E6000012194F8230003F0A5FB94F82730002BE0
:103E70003FF425AF0FE772B6F37AD8071A4606D596
:103E80001349F26808680240B2610A601A4699074D
:103E900006D5104933690868F27A0340F3610B6074
:103EA000530705D50C4A736911680B4033621360E0
:103EB00062B6F8E66091FF1F000002B801403F00C3
:103EC000000002F800003F8050BFFF1F801A06006C
:103ED00080E100E084E100E088E100E02DE9F04FBE
:103EE0002121054683B0FFF757FE28460021FFF742
:103EF00053FE28467F21FFF74FFE28462221FFF779
:103F00004BFE28460021FFF747FE28460321FFF716
:103F100043FE95F9223001334AD0012195F826005D
:103F2000374FDFF8E8A003F03FFB012195F82400AC
:103F300003F03AFB002195F8260003F035FB07F566
:103F400000784FF0004995F8273017F801BF13BBF0
:103F500008268024002195F8230003F025FB1BEAA6
:103F600004034FF0010195F8220008BF194603F041
:103F70001BFB012195F82300CC4003F015FB013E0B
:103F8000E8D14745DFD195F82600012103B0BDE80F
:103F9000F04F03F009BBDAF80020C2F82C90C2F809
:103FA00034B0D36A002BFCDA4745936BCBD1EAE7F8
:103FB000144FDFF85480002495F82010124801F0C7
:103FC000E5FB4021104801F0B7F804F11006B6B245
:103FD000395D0D480134A4B201F0AEF8B442F7D116
:103FE000002398F80D20D8F81010074800930123FB
:103FF00001F02EFDB4F5007FDED103B0BDE8F08FF7
:10400000278AFF1F288AFF1F50BFFF1F6091FF1FD5
:1040100010B4012400224FF06051047181600260ED
:10402000427110BC704700BF70B5A2F12003044676
:10403000012600254FF06050072B21602671657125
:10404000A0600FD90A4802F081F92078012103F01D
:10405000B1FA0121207803F0A7FA322003F0D4FA54
:10406000204670BDB24042EA060362712371E9E75F
:104070006091FF1FF8B5364C8268E37A05460E461C
:10408000BBB172B6E37AD807194606D53148E16864
:1040900007683940A161016019469B0706D52E4883
:1040A00023690768E17A3B40E36103604F0748D426
:1040B00062B62368D968914207D028481860284919
:1040C000DA6042F08040186119600021287803F01E
:1040D0006BFA23682A794FF00041D9625A63DA6A91
:1040E000002AFCDA4FF00042996BDA625E63DA6A0A
:1040F000002AFCDA4FF000414FF08052986BD962F1
:104100005A63DA6A002AFCDA9B6B287801219DB297
:1041100003F04AFAE37A0E491A4683B1D80703D569
:10412000104A896911601A46990703D50E4BE16957
:10413000E27A1960530702D50C4B226A1A602846AE
:10414000F8BD0B4963690868034023620B60AFE761
:104150006091FF1F80E100E084E100E001403F004A
:1041600000003F8000E100E004E100E008E100E041
:1041700088E100E0F8B5384CE37A05460F468068E0
:104180001646EBB172B6E37AD9071A4609D5DFF8BD
:10419000E4E0E168DEF800200A40A261CEF80020E9
:1041A0001A46990709D5DFF8D0E02169DEF800301A
:1041B000E27A0B40E361CEF80030530744D462B694
:1041C0002368DA68824207D024491960244AD860FB
:1041D00040F0804119611A600021287803F0E4F969
:1041E00023686A794FF00041D9625A63D96A00297D
:1041F000FCDA4FF00042996BDA625F63D96A0029FA
:10420000FCDA4FF00042996BDA625E63DA6A002AE8
:10421000FCDA012128789B6B03F0C6F9E37A0E499A
:104220001A4683B1D80703D50E4A896911601A4628
:10423000990703D50C4BE169E27A1960530702D55F
:104240000A4B226A1A60F8BD094A636911680B407B
:1042500023621360B3E700BF6091FF1F01403F007E
:1042600000003F8000E100E004E100E008E100E040
:1042700088E100E080E100E084E100E0F8B5394C3D
:10428000E37A05460F4680681646EBB172B6E37ACC
:10429000D9071A4609D5DFF8E8E0E168DEF8002022
:1042A0000A40A261CEF800201A46990709D5DFF826
:1042B000D4E02169DEF80030E27A0B40E361CEF809
:1042C0000030530746D462B62368DA68824207D0CA
:1042D00025491960254AD86040F0804119611A606B
:1042E0000021287803F060F923686A794FF00041D3
:1042F000D9625A63D96A0029FCDA4FF00042996BFF
:10430000DA625F63D96A0029FCDA46F080564FF022
:104310000042996BDA625E63DA6A002AFCDA0121F4
:1043200028789B6B03F040F9E37A0E491A4683B173
:10433000D80703D50E4A896911601A46990703D533
:104340000C4BE169E27A1960530702D50A4B226AE5
:104350001A60F8BD094A636911680B402362136053
:10436000B1E700BF6091FF1F01403F0000003F80A8
:1043700000E100E004E100E008E100E088E100E0A5
:1043800080E100E084E100E062B170B505460E46D0
:1043900014462B6816F8011B1B6828469847013CF9
:1043A000F7D170BD1046704702F03ABC02F020BC55
:1043B00002F0FABB084602F0E1BC00BF02F00EBDFD
:1043C00070B5144D0446032607E002F0EDFB637B55
:1043D000C0B263B9DB2814D16673206903685B69D6
:1043E000AB42F2D09847637BC0B2002BF2D0032BD4
:1043F0000CD10023DC28637306D0DD2806D1DB2036
:1044000070BDC02802D070BDC02070BD4FF0FF301D
:1044100070BD00BFB143000010B5044600690B4AEF
:1044200003689B6993420BD102F0E2FB637B032B91
:10443000C0B200D010BDDC2804D0DD2804D010BDEF
:104440009847F3E7C02010BDDB2010BDAD4300004E
:104450000069044A0368DB68934201D102F0BEBCE4
:10446000184700BFBD4300002DE9F041344D354EE3
:10447000354F04464FF00108206903681B69AB42C1
:104480001FD102F0CDFBF8B1637B002B2ED1206948
:1044900003689B69B34219D102F0AAFBC0B2DB28C2
:1044A00018D0C0281FD1206984F80D8003685B698B
:1044B000BB4216D102F078FB206903681B69AB424E
:1044C000DFD098470028DFD1BDE8F0819847C0B21F
:1044D000DB28E6D1206903685B690322BB42627373
:1044E000E8D09847C8E70120BDE8F081032BFAD057
:1044F000012B08D0022B02D00020BDE8F081002063
:104500006073BDE8F08120690E4A03689B6993429D
:1045100010D102F06DFBC028F1D120690A4A03686E
:104520005B6902219342617306D102F03DFB0020DA
:10453000BDE8F0819847EEE798470020BDE8F0819C
:10454000A9430000AD430000B1430000C02970B58D
:10455000044621D0DB29006909D002681E4C12688C
:10456000A24216D10846BDE8704002F007BC0268BE
:10457000194D1268AA4222D1084602F0FFFB2069B9
:1045800003681B68AB421CD1DD20BDE8704002F01F
:10459000F5BBBDE87040104700690F4D03681B680C
:1045A000AB4216D1DB2002F0E9FB206903681B68EF
:1045B000AB420AD1DC20BDE8704002F0DFBB90477F
:1045C000DDE7DD21BDE870401847DC21BDE8704023
:1045D0001847DB219847E8E7B543000030B40022D4
:1045E0004FF47A75044C85600460016102710273B6
:1045F000427330BC704700BFF8070100437B022BB9
:1046000010B504461FD0012B01D0002010BD006959
:10461000134A03681B69934219D102F001FB90B160
:104620002069104A03689B69934214D102F0E0FAB2
:10463000C0B2C02807D120690B4A03685B69934266
:104640000BD102F0B1FA00236373012010BD98472B
:104650000028F8D0E4E79847EAE79847F3E700BF77
:10466000A9430000AD430000B1430000704700BF04
:104670000069054A03681B68934202D1C02002F01A
:104680007DBBC021184700BFB54300000069094A3F
:1046900008B503681B68934206D1C02002F06EFB88
:1046A000BDE8084002F09ABBC0219847BDE8084029
:1046B00002F094BBB54300000022732370B504469A
:1046C0000270836008460D4607F03AFF01306060D3
:1046D00006F0F6FE30B10646294607F0BFFE266119
:1046E000204670BD03232370204670BD30B40025E2
:1046F00069240422057084600161426030BC704707
:1047000030B4002566240422057084600161426093
:1047100030BC704770B483B08DE8060003469DE856
:10472000030000267425082403F110011E709D600B
:104730005C6081E80500184603B070BC704700BF9C
:1047400070B4002608256424067045608460C0E9C2
:10475000042370BC704700BF2DE9F041144682B0BD
:10476000C4F30723160E8DF80630C2F30742622306
:10477000836005460023201D8DF807408DF80460F6
:104780008DF80520019E0096984268602B700FDD21
:10479000884606F095FE074678B1224640F8046B3D
:1047A000414602F067F928462F6102B0BDE8F0816A
:1047B00028462B6102B0BDE8F081032328462B7008
:1047C00002B0BDE8F08100BF4368002B10B504467D
:1047D00004DD8368732B03D0622B01D0204610BD0B
:1047E000206906F075FE204610BD00BF10B40224FB
:1047F000002204708160426010BC70478368662BA1
:104800000CBF00690020704710B5044600202060EE
:10481000A0602073606020616061A061102107F0DA
:10482000E3F9206128B11023A3610023636163735E
:1048300010BD03232373002320616361637310BDE4
:1048400010B50446FFF7E0FF02232373204610BD96
:104850008368426870B50024A342054604730EDDE8
:1048600052F82460013430463EB1FFF7ADFF3046C8
:10487000182104F0E1F96A68AB68A342F0DC104645
:1048800006F026FE00236B60AB606B731021286975
:1048900007F0AAF9286128B11023AB6100236B61EE
:1048A000284670BD03232B73002328616B612846C3
:1048B00070BD00BF10B50446006806F009FE204632
:1048C000FFF7C6FF206906F003FE204610BD00BFBB
:1048D00083688B4203DD436853F82100704704234B
:1048E00003730020704700BF8268914230B41FDA22
:1048F0004468037B54F82150191C18BF0121002A79
:1049000012DD00239A4204DC0422002302731B7888
:10491000FFDE446854F8234024780133002C18BF8C
:1049200041F001019A42EDDC49B9287A30BC704768
:104930000423002A037302DD00250121E1E70020A2
:1049400030BC704770B48468A14223DA4568037BA9
:1049500055F82160191C18BF0121002C12DD00231D
:104960009C4204DC0422002302731B78FFDE4568AE
:1049700055F823502D780133002D18BF41F0010167
:104980009C42EDDC69B9B368981AB0FA80F040092E
:1049900070BC70470423002C037302DD0026012144
:1049A000DDE7002070BC70476622FFF7CBBF00BF79
:1049B00030B50546006883B001AB104414466A4622
:1049C00001F026FF0328009B07D0002B08DD2A6892
:1049D0001A44125D2F2A18BF0023184603B030BDB9
:1049E0000023184603B030BD70B515461A461C4664
:1049F0000646FFF7DDFF002804DD21183046A847F2
:104A0000012070BD002070BDF8B50D460446006859
:104A100006F05EFD284607F093FD461C304606F082
:104A20004FFD074630B13246294602F023F8276091
:104A30002046F8BD0323206023732046F8BD00BF45
:104A400038B504460D46FFF7DFFE29462046FFF73E
:104A5000DBFF204638BD00BF806870472DE9F04776
:104A6000027B06468068003218BF0122002884B00D
:104A70000C460BDD736803EB800053F8041B0978C8
:104A8000002918BF42F001028342F6D11AB1304624
:104A900004B0BDE8F0873768384607F051FD236859
:104AA000421C554205F0030539465B68204698478D
:104AB00035B1236800211B6820469847013DF8D195
:104AC00023682C211B6820469847B368002B0DDD16
:104AD00000252368294630461F68FFF705FF014679
:104AE0002046B847B3680135AB42F2DCDB4313F034
:104AF000030346D05D1E2368013D1B68002120464C
:104B000098476B1CF7D1B268002AC0DD00271DE072
:104B1000642B38D0742B4AD0542B14D0462B12D08F
:104B2000EB7C8DF80830AB7C8DF809306B7C8DF810
:104B30000A302A7C23688DF80B206A685B6802A91A
:104B400020469847B2680137BA42A0DD736853F82F
:104B50002750AB68732B01D0622BD9D123686A68C8
:104B600029695B68204698476D686D4215F003051A
:104B7000E8D0236800211B6820469847013DF8D102
:104B8000E0E70325B7E705F117030DF107020F353D
:104B900013F8011902F8011FAB42F9D1236808226A
:104BA0000DEB02015B6820469847B268CBE7287C92
:104BB0006B7CAA7CE97C95F8148095F8159095F8A3
:104BC00016A0ED7D8DF80B008DF808108DF80A30D9
:104BD0008DF80920029A2368019204220DEB02014C
:104BE0005B68204698478DF808508DF809A08DF82D
:104BF0000A908DF80B80029A2368019204220DEB33
:104C000002015B6820469847B2689CE710B50169CD
:104C10000446FFF7F9FE002323732069102106F0F4
:104C2000E3FF206120B11023A3610023636110BD65
:104C30000323237300232061636110BD2DE9F0433A
:104C40008668002E85B00FDD47683A681378022B1E
:104C50000DD03C46002304E054F8042F1578022DB3
:104C600006D00133B342F7D105B0BDE8F08300238D
:104C70009268623A0446122AF6D801A050F822F04F
:104C8000CD4E0000694C00006F4E0000694C0000E2
:104C90001D4E0000694C0000694C0000AD4D000045
:104CA000694C0000694C0000694C0000694C000030
:104CB000694C0000694C0000694C0000694C000020
:104CC000694C0000734D0000CD4C00006269082A59
:104CD000CAD1226957F82350106851686A4603C246
:104CE0009DF803609DF802009DF801109DF80020DA
:104CF0008DF808608DF809008DF80A108DF80B20EA
:104D00009DF807609DF806009DF805109DF80420A9
:104D1000DDF808808DF808608DF809008DF80A101C
:104D20008DF80B209E00029F35B12846FFF74CFD01
:104D30002846182103F080FF1820CDF8088003973B
:104D400003F078FF04AB054613E90600FFF7E2FC29
:104D50002B78032B00F0B88063689D5110212069E7
:104D600006F042FF2061002851D103232061237304
:104D70004FE000297FF478AF57F8235027699E0051
:104D800035B12846FFF720FD2846182103F054FFCF
:104D9000182003F04FFF05463946FFF78DFC2B78AE
:104DA000032B00F0D98063689D51BFE06269042A3B
:104DB0007FF45AAF226957F82350167850789178CB
:104DC000D2788DF80B608DF80A008DF809108DF8F7
:104DD00008209E00029F35B12846FFF7F5FC2846C3
:104DE000182103F029FF182003F024FF0546394657
:104DF000FFF77CFC2B78032B37D063689D51102183
:104E0000206906F0F1FE2061002800F09C8010234C
:104E1000A3610023636105B0BDE8F0836269042AE1
:104E20007FF422AF226957F8235016785078917892
:104E3000D2788DF80B608DF80A008DF809108DF886
:104E400008209E00029F35B12846FFF7BDFC28468A
:104E5000182103F0F1FE182003F0ECFE0546394658
:104E6000FFF74EFC2B78032BC7D12373C7E762698A
:104E7000082A7FF4F9AE2269516810686A4603C2B5
:104E80000DF107010A460DF1FF3512F8010901F88D
:104E9000010FAA42F9D157F823509E00DDE902899B
:104EA00035B12846FFF790FC2846182103F0C4FED0
:104EB000182003F0BFFE05464B464246FFF740FC74
:104EC0002B78032B7FF448AF237347E761690429EC
:104ED0007FF7CAAE25692A786E788DF80B20A878FE
:104EE000EA788DF808208DF80A608DF80900029E96
:104EF000321D91427FF4B8AE57F823704FEA830811
:104F000037B13846FFF760FC3846182103F094FEAD
:104F1000182003F08FFE07463246291DFFF71CFCC0
:104F20003B78032B18D0636843F808701021206980
:104F300006F05AFE206158B11023A3610022062317
:104F40006261637390E6032200232273236160E7AA
:104F5000032320612373F1E72373E7E738B58369FF
:104F6000002B08DD436902695C1C4461D1548369EC
:104F7000013B836138BD0D4641690446113100692A
:104F800006F032FE206130B16369591C6161C5547D
:104F90001022A26138BD0323237338BD70B50446C7
:104FA0000D46FFF7DBFF637B062B11D8DFE803F02C
:104FB0003D424A590611170003232373A268616911
:104FC000D34313F0030308BF0423134499421FD0B3
:104FD00070BD29462046BDE87040FFF72FBEA5688A
:104FE0006B1EF5D49A0004E0013B591CA2F10402A7
:104FF000EED09D423ADD6168895808780028F3D1E7
:105000004B685B4213F0030335D062699A42DFD1EB
:105010001021206906F0E8FD206178B31023A36118
:10502000002205236261637370BD2F2DD0D101234F
:10503000637370BD002DCBD12046FFF7E7FD02233F
:10504000637370BD2C2DC3D10325657310212069B6
:1050500006F0CAFD206178B31023A36100236361C9
:1050600070BD85B90423A2686373A8E704220023F6
:1050700022731B78FFDE0523637370BD03220023B8
:1050800022732361CCE7182003F0D4FD064629469D
:10509000FFF7ACFB3378032B8FD0A3686068591CF3
:1050A000890006F0A1FD002886D0A36860605A1C24
:1050B00040F82360A26082E725732061CEE700BF3D
:1050C00070B5064642B10D46144615F8011B304630
:1050D000FFF764FF013CF8D1304670BD0369D3F897
:1050E0003801D3F83431C01A704700BF0369D3F8D0
:1050F0003411D3F83821914208D2D3F83421511C0D
:105100001A44C3F8341192F8300070474FF0FF3062
:10511000704700BF0369D3F83411D3F838219142A6
:105120003DBFD3F834219B1893F830004FF0FF3087
:10513000704700BF704700BF0369D3F84422B2F53F
:10514000817F03D90123037100207047D3F84422E3
:1051500010B49C180132C3F8442284F83C11012099
:1051600010BC704738B503690A4A026093F84822B8
:10517000022A044601D0204638BDD3F87452002DCF
:10518000F9D0284603F008FC2846082103F054FD16
:10519000204638BD1C08010038B503690546D3F820
:1051A0004402B0F5817F1AD81446D3F84422D3F8CC
:1051B0004402C2F58172013203F59E73A242184483
:1051C00002D2012314462B71224601F053FC2A69B6
:1051D000D2F844322344C2F84432204638BD012379
:1051E0002B71002038BD00BF2DE9F0471E46044654
:1051F00017469DF820909DF824309DF828A00D4674
:1052000059B301290FD090F84A329A424FF0000862
:1052100000D14DB3012D0ED094F84B329E4212D0E6
:105220000020BDE8F0871D2F4FD01A2F77D094F8BB
:105230004A324FF000081E2E1AD01F2E6DD094F85F
:105240004B329E42ECD1BAF1000FE9D00025B8F103
:10525000000FE5D0002DE3D031E0102A35D0132A1D
:1052600033D090F84A328846A6F11103012BE6D8D4
:10527000022594F84B329E4257D0BAF1000F09D064
:1052800094F84C3294F84B02002B14BF02210021F9
:1052900002F090F92B02B9F1000F13D143F064032F
:1052A000264A02EBC60201215268136084F84B6261
:1052B00084F84C9284F89912B8F1000FB0D0012014
:1052C000BDE8F08743F00303EAE74FF0020894F8E3
:1052D0004A22974226D04BB194F84C3294F84A02B5
:1052E000002B14BF0221002102F064F94FEA0822CA
:1052F000B9F1000F0ED142F06402104B03EBC7036B
:10530000596801230A6084F84A7284F84C9284F840
:1053100098327EE742F00302EFE70625A9E74FF057
:105320000608D4E7002BE1D073E7BAF1000FB1D043
:10533000B8F1000F3FF474AF8CE700BFC40901005F
:10534000F8B5C3681B789B0610D483680D4680218E
:105350001970C3681221197090F84932012B044664
:1053600006D08AB980F848220120F8BD0020F8BD97
:105370001A4675B9474B4FF080711960022A0FD059
:10538000012084F84802F8BD531E012BF1D90120F9
:10539000F8BD012DF2D13F4B4FF000711960EDE7E0
:1053A000D4F87462002E6AD03379102B30D0002DDF
:1053B0003CD132683849938B384F9BB243F0080395
:1053C00093833279531102F110009B0041F8207051
:1053D00003F1604303F56143012102F01F0201FA6A
:1053E00002F231681A608B8B9BB243F002038B830D
:1053F000337903F1804303F5043396221D701A704C
:105400000022022384F85E2284F848320120F8BD8D
:10541000304603F0C1FA3046082103F00DFC0023AA
:105420000120C4F8743284F84802F8BD012DE7D198
:1054300032681949938B1A4F9BB243F00803938348
:105440003279531102F110009B0041F8207003F1F2
:10545000604303F5614302F01F02954032681D600E
:10546000938B9BB243F002039383337903F1804320
:1054700003F504330021972219701A70C0E7082041
:1054800003F0D8FB314607463E4603F021FAC4F844
:10549000747289E700E100E00084FF1F0D610000E5
:1054A00019610000F0B5284EDFF8ACE0A6FB01431F
:1054B000A6FB02429E093702754696091424002372
:1054C000B7FBF6F604E00133372B1BD055F8044F39
:1054D00022029642F7DA83BB14241C4A4568B1FBCA
:1054E000F4F491422B70C0F8504207D8184B8269EF
:1054F000A3FB0131C1F307511170F0BD8369042290
:105500001A70F0BD002422464FF470274FF47065E6
:105510004FF0360CB21AF71B002A87EAE776A6EBA3
:10552000E776B8BF5242964202DD0A4AD35CD4E71E
:10553000084B2C4613F80C30CFE703F1FF3C5EF824
:105540002C502F02E6E700BFD34D6210FF6BDC0248
:10555000819F5E161409010038080100F0B49DF81F
:1055600014409DF810609DF818503CB135B1C768E3
:105570003F78BF0602D50020F0BC70470695059421
:105580000496F0BCFFF730BE2DE9F04184B004462C
:1055900094469DF828609DF82C209DF830009DF8D9
:1055A00034E09DF83C700D4600294BD1DFF8E080D7
:1055B000D8F8001041F04001C8F80010002184F82C
:1055C00049C284F85512BCF1000F2AD16369202129
:1055D000197012B994F84A22D2B210B994F84B0259
:1055E000C0B294F8981294F8996202960346CDF8E6
:1055F00000E0019120462946FFF7B0FF0E9A2349AB
:105600002046FFF74FFF3A4629462046FFF798FE0F
:1056100094F8493263B3A368C0221A7004B0BDE89D
:10562000F0816169CEB14FF0280C81F800C09E4234
:10563000216823D95B00DBB20B707600E369F6B218
:105640001E70C6E70129B9D1DFF84480D8F80010F0
:1056500041F08001C8F80010B0E74FF0200C81F84D
:1056600000C021685B00DBB20B70E3691E70B0E71D
:10567000A36880221A7004B0BDE8F0817600F6B20B
:105680000E705E00E369F6B21E70A2E700512502BB
:10569000348004402DE9F041154682B004460F469F
:1056A000984601F08DFF0DB9D4F8785201F088FFCB
:1056B000A3681A789206064609D5B4221A70304BB0
:1056C0001B78002B35D0012002B0BDE8F08155BB1E
:1056D000E3681B7803F0200303F0FF02002BF6D1F0
:1056E000A36884F84922B0221A70A3681B7803F0DB
:1056F000200303F0FF00002BE1D1062384F855328C
:10570000D4F89032013304D0D4F890320133C4F885
:105710009032D4F87032002BD6D00190984701987F
:1057200002B0BDE8F08101F04BFF801B8542CFD86D
:10573000DBE794F84832013B012BC4D802F076F83D
:105740008FB1012F0FD10F4B1B788342BBDB0F288A
:1057500012DD5FB1012F09D1A0F11003094ADBB2BC
:1057600038461370B0E7084B1B78EEE7A0F1100342
:10577000054ADBB21370A6E7012088F80000A3E712
:1057800064BFFF1F19E400E018E400E0036949006A
:1057900083F83C11036900220121C3F8441202710D
:1057A00083F85522704700BF2DE9F043054683B0CA
:1057B000D0F8440200248DF8074070B190461C4692
:1057C0000BB9D5F87842EB6812221A7028460DF111
:1057D00007032246FFF75EFF10B903B0BDE8F08370
:1057E00095F84832BBB19DF80720A2B9591E01298E
:1057F000F3D80821022B85F8551285F85482C5F894
:10580000402200F0A180AB68F0221A702B6995F855
:105810003C211A70E1E701F0D3FE082385F85532E8
:10582000D5F8447285F8548206465FB305F23B18FA
:1058300000274FF00209002C44D12B6918F8012FE2
:105840001A70EA681378980737D4002CFAD001F060
:10585000B7FE801B8442F4D8EB6883F8009001F017
:10586000AFFE801B84420BD9EA681378DBB2D906FD
:105870003AD4DB074AD4D5F844320137BB42DAD8F0
:1058800095F85482AB68B8F1010F0CBF8022B022AA
:105890001A70D5F84432BB421AD9012385F8553223
:1058A000D5F88032013304D0D5F880320133C5F801
:1058B0008032D5F870329BB98FE782F80090002CC7
:1058C000D2D0CCE701F07CFE801B8442B5D8D7E76C
:1058D000D5F86032002285F85522002B3FF47DAFC9
:1058E000984703B0BDE8F0831023042185F85512D2
:1058F0001370AB6880221A70D5F88C320133D8D07F
:10590000D5F88C320133C5F88C32D2E77FB9022347
:1059100085F85532D5F88432013304D0D5F8843275
:105920000133C5F88432AB6880221A70C1E70323C3
:1059300085F85532D5F888320133F4D0D5F888325D
:105940000133C5F88832EEE7D5F84432042B7FF6F0
:105950005AAFD5F8741201200C6885F85E02D5F8AC
:105960004432E2710E68A08005F59F772760B06031
:105970000C68033B98B2E08309685B42E360C8822D
:10598000D5F8741228690B68B0F1804F9A711861CC
:105990009A820B6801D39A6812B901229A600B6847
:1059A00000229A612FE700BF036993F85532013B4B
:1059B000052B0CD8DFE803F00307090305030420D7
:1059C000704701207047022070470320704700791C
:1059D000003018BF0120704770B51546044601F02D
:1059E000EFFD0DB9D4F8785201F0EAFD064694F8BF
:1059F0005532072B1AD9002DF9D001F0E1FD801B9B
:105A00008542F4D801F0DCFD801B854210D894F863
:105A10004832022B0CD194F85E324BB194F85532D7
:105A2000072BFBD8012384F8553201E0002DE9D182
:105A300094F85532072B02D9012384F8553260239C
:105A4000013BFDD194F85502B0FA80F0400970BDD9
:105A5000F8B5069E0C46154607461A4629462046C6
:105A60003346FFF7A1FE324629462046FFF7B4FF32
:105A70003846BDE8F840FFF797BF00BF2DE9F04179
:105A8000C04E337804460133DBB2C068A768337078
:105A900005783B78DBB203F0200282B0EDB23AB376
:105AA00013F0100F94F85E327AD0022B00F0D880F9
:105AB00094F85E32032B00F0D38094F85532082B13
:105AC00000F0298294F85532092B00F0648294F892
:105AD0005532012B00F0D38180233B70E368022212
