:1000000000800020BD010000117D0000C97C0000BF
:10001000C97C0000C97C0000C97C0000C97C0000CC
:10002000C97C0000C97C0000C97C0000117D000073
:10003000117D0000C97C0000599000005D91000016
:10004000117D0000117D0000117D0000117D000078
:10005000117D0000117D0000117D0000117D000068
:10006000117D0000117D0000117D0000117D000058
:10007000117D0000117D0000117D0000117D000048
:10008000117D0000117D0000117D0000117D000038
:10009000117D0000117D0000117D0000117D000028
:1000A0004D66000059660000117D0000117D0000C2
:1000B000117D0000117D0000117D0000117D000008
:1000C000117D0000117D0000117D0000117D0000F8
:1000D000117D0000117D0000117D0000117D0000E8
:1000E000117D0000117D0000117D0000117D0000D8
:1000F000117D000021940000117D0000F5920000A8
:10010000117D00004D950000117D0000117D000063
:10011000117D0000117D0000117D0000117D0000A7
:10012000117D0000117D0000117D0000117D000097
:10013000117D0000117D0000117D0000117D000087
:10014000117D0000117D0000117D0000117D000077
:10015000117D0000117D0000117D0000117D000067
:10016000117D00005D7F0000117D0000117D000009
:10017000117D0000117D0000117D0000117D000047
:10018000117D0000117D0000117D0000117D000037
:10019000117D0000117D0000117D0000117D000027
:1001A000117D0000117D0000117D0000117D000017
:1001B000117D0000117D0000117D0000564B4CF2B6
:1001C000205210B51A804DF628121A8000BF00BFC9
:1001D00007F0A2FD514B4FF010621A60504A9A602E
:1001E000504ADA60504A136813F4807304D14F49BF
:1001F0000B604FF4A85313604D4B1A78110703D5C9
:100200001A7842F008021A704A4B4B492A221A7097
:100210004A4A4B4B8B4204D252F8040F43F8040B6A
:10022000F8E7484B484900228B4202D243F8042B9E
:10023000FAE74649464A002352F8230041F82300D2
:1002400001336F2BF8D1434B434A802103F8011B44
:100250009342FBD1414B3D4A1A60414B8A221A70AE
:10026000A3F5805324225A70A0221A709A7992071B
:10027000FCD59A79D406FCD43A4A937903F00C035E
:10028000082B384BF9D105221A7143225A719A79F9
:100290009006FCD5334A9179324B4906FBD5324A58
:1002A0004FF0817111600521516020221A709A79F6
:1002B00002F00C020C2AFAD12C4B2D4A1A602D4B5D
:1002C0002D4A1A6000225A60072243F8042C2B4A58
:1002D000C3F80C2D62B607F087FC144B1B68DA07D5
:1002E00005D5274807F05EFA264B274A1A60274BA8
:1002F0001B785B0609D5234C234B22689A4204D114
:100300001F4807F04FFA002323600BF095FB07F01E
:1003100009FD08F067FDFEE70E200540308004402F
:10032000823F04000100002B10D0034014D0034092
:1003300002D0074000E00740E89CFF1FF0130100D7
:100340002089FF1FE89CFF1FCCC2FF1F0084FF1FF6
:100350000000000000E400E05FE400E008ED00E0E1
:1003600000500640004006404480044004800440A1
:10037000C010050014E000E03F190100000020203B
:10038000000000001CE00340A5C3945A00F00740A1
:10039000FFFFFFFFFFFFFFFFFFFFFFFFFFFFFFFF6D
:1003A000FFFFFFFFFFFFFFFFFFFFFFFFFFFFFFFF5D
:1003B000FFFFFFFFFFFFFFFFFFFFFFFFFFFFFFFF4D
:1003C000FFFFFFFFFFFFFFFFFFFFFFFFFFFFFFFF3D
:1003D000FFFFFFFFFFFFFFFFFFFFFFFFFFFFFFFF2D
:1003E000FFFFFFFFFFFFFFFFFFFFFFFFFFFFFFFF1D
:1003F000FFFFFFFFFFFFFFFFFFFFFFFFFFFFFFFF0D
:10040000FFFFFFFFFFFFFFFFFFFFFFFFDEF9FFFF23
:1004100010B5054C237833B9044B13B10448AFF33E
:1004200000800123237010BDE89CFF1F0000000026
:10043000EC130100084B10B51BB108490848AFF395
:1004400000800848036803B910BD074B002BFBD0A0
:10045000BDE81040184700BF00000000EC9CFF1FE3
:10046000EC130100E89CFF1F000000000022027056
:1004700002784270704700BF017002784270704786
:10048000017070470278034602F0FF0022B15A78EB
:1004900012B901225A7070471A785A7000207047BA
:1004A00003782BB983781BB90123837018467047F2
:1004B000037883F0010383700020704710B5074C68
:1004C00004F1200008F01EFB04F1100008F01AFBF4
:1004D0002046BDE8104008F015BB00BF349DFF1F4B
:1004E00038B5054CA4F190052046103C08F00AFBF5
:1004F000AC42F9D138BD00BF249EFF1FF0B5294C96
:10050000294B617B20698BB00025049313260223BD
:10051000122705932A462B460196039500950297CC
:1005200005F0D2FA2369214E42F21072C3F8782204
:1005300001F0E6F800F08AFD02F0AEFD86FB05341E
:10054000A4EBE57404EB44042C1BFF21204600F0CF
:10055000DFFD4FF4C87007F0F7FA0135204600219F
:1005600000F0D6FD052DE9D100F024FB00F0C6FB1C
:1005700001F000FC02F08EFA4FF47A7007F0E4FA12
:1005800000240B4906A808F0FDFA204606A900F051
:1005900095FB013406A808F0B5FA092CF1D10BB08F
:1005A000F0BD00BFC0BFFF1F801A0600565555554D
:1005B000C803010070B5134D134C82B001F0F6FB77
:1005C00001F0BAF802F002FA2B680093009B22684F
:1005D0009B1AB3F5FA7F12D90C4E3378002B44F2F4
:1005E00044414FF0020018BF002100F091FD2A683D
:1005F0003378019283F00103019A3370226002B0D4
:1006000070BD00BFE8BFFF1F749EFF1F008AFF1F61
:100610002DE9F04FDFF8F4929B4C9C4D9C4E9D4988
:10062000DFF8EC82DFF8ECB2DFF8ECA291B04846DC
:1006300008F0A8FA2246294648460BF0BBF9304696
:10064000954908F09FFA2246294630460BF0B2F948
:1006500006230422314604A808F0A0FB04A968463A
:1006600008F0A4FA6846202108F038FB0323002292
:100670000746314608A808F091FB08A9384608F05B
:1006800025FB202108F02AFB0B23072207463146D1
:100690000CA808F083FB0CA9384608F017FB0146AC
:1006A000404608F083FA0CA808F02CFA08A808F0D5
:1006B00029FA6846794E7A4F08F024FA04A808F01F
:1006C00021FA2246294640460BF074F93046754916
:1006D00008F058FA394606F1100008F053FA0CA851
:1006E000714908F04FFA49460CA808F0EFFA0146A4
:1006F00006F1200008F05AFA0CA808F003FA0623C5
:100700000022414608A808F049FB08A904A808F0FF
:100710004DFA04A80A2108F0E1FA0B2307228146CA
:1007200041460CA808F03AFB0CA9484608F0CEFA5E
:10073000014606F1300008F039FA0CA808F0E2F999
:1007400004A808F0DFF908A808F0DCF906F1400079
:100750005649DFF8C891DFF8C88108F013FA06F1AE
:100760005000534908F00EFA394606F1600008F0CF
:1007700009FA394606F1700008F004FA394606F124
:10078000800008F0FFF922464A494B4F4B4E0020AB
:100790000BF010F958464A4908F0F4F92246294668
:1007A00058460BF007F950464649DFF878B108F093
:1007B000E9F92246294650460BF0FCF848464249E2
:1007C000DFF864A108F0DEF92246294648460BF01E
:1007D000F1F840463D4908F0D5F922462946404601
:1007E0000BF0E8F83A493B4808F0CCF92246294694
:1007F00038480BF0DFF83849384808F0C3F922468A
:10080000294636480BF0D6F83549364808F0BAF98B
:100810002246294633480BF0CDF83846324908F0D5
:10082000B1F92246294638460BF0C4F830462F4924
:1008300008F0A8F92246294630460BF0BBF8584686
:100840002B4908F09FF92246294658460BF0B2F88A
:100850005046284908F096F90AF11000264908F098
:1008600091F90AF12000254908F08CF92246244923
:1008700000200BF09FF8234A234B12680C920C9A2D
:100880001A6011B0BDE8F08FFC89FF1F058B0000D6
:10089000749DFF1FA0030100A8030100A49DFF1F7A
:1008A000C8030100B4030100C0030100CC03010030
:1008B000D8030100E1040000349EFF1F649EFF1F67
:1008C000E8030100F0030100F4030100FC03010050
:1008D00004040100649DFF1F08040100889EFF1F9F
:1008E00014040100449EFF1F200401002C04010099
:1008F000340401003C0401004C04010060040100C8
:10090000BD040000E8BFFF1F749EFF1F949DFF1FE2
:10091000149DFF1F249DFF1F849DFF1F789EFF1FB6
:10092000549EFF1F049DFF1F349DFF1F38B5054CCB
:10093000A4F190052046103C08F0E4F8AC42F9D14F
:1009400038BD00BF489FFF1F30B5594959485A4C20
:1009500091B008F017F9594A594956480BF02AF84E
:100960005849594808F00EF9544A554956480BF071
:1009700021F80623042204A8534908F00FFA04A919
:10098000684608F013F92021684608F0A7F9032308
:10099000002205464C4908A808F000FA08A9284694
:1009A00008F094F9202108F099F90B230722054655
:1009B00045490CA808F0F2F90CA9284608F086F978
:1009C0000146424808F0F2F80CA808F09BF808A885
:1009D00008F098F8684608F095F804A808F092F82E
:1009E000364A374939480AF0E5FF3949394808F0AD
:1009F000C9F83949394808F0C5F839490CA808F050
:100A0000C1F82C490CA808F061F90146354808F0F6
:100A1000CDF80CA808F076F80623002208A82B4988
:100A200008F0BCF908A904A808F0C0F80A2104A835
:100A300008F054F90B230722054624490CA808F0B6
:100A4000ADF90CA9284608F041F90146264808F0FE
:100A5000ADF80CA808F056F804A808F053F808A858
:100A600008F050F82149224808F08CF82149224822
:100A700008F088F81849214808F084F816492048F9
:100A800008F080F814491F4808F07CF80B4A1E490A
:100A900000200AF08FFF04F5B47520464FF0FF31B7
:100AA000283403F0F9FAAC42F7D111B030BD00BFE1
:100AB000A0030100A89EFF1F589FFF1FFC89FF1F76
:100AC000058B0000A8030100989EFF1FB89EFF1F22
:100AD000B4030100C89EFF1FC8030100D89EFF1F7A
:100AE000C0030100E89EFF1FF89EFF1FCC0301001A
:100AF000089FFF1FD8030100189FFF1F289FFF1F9B
:100B0000389FFF1F489FFF1F2D09000070B584B05C
:100B1000002108288DF80D1039D8234B53F82020D8
:100B20008A42224901EA02011346B8BFD31D0029B7
:100B30004FEAE3032DDB8BB3012B04BF03FA01F172
:100B40008DF80D1000251A4C7021204605F0BEF8D6
:100B500029462046002504F08FFD627B216900951F
:100B60000123204605F014FA9DF80D6020467121FE
:100B700005F0ACF83146204604F07EFD627B216929
:100B800000952046012305F003FA04B070BD0D4620
:100B9000D9E7013961F007010131CCE7012303FAFC
:100BA00001F1CDB2CFE700BF700401000700008063
:100BB000C0BFFF1F2DE9F0473F4C8AB0002501263A
:100BC0004FF0FF31684603F067FA9DF804E0BDF886
:100BD0000670BDF80800BDF80A10BDF80C20BDF87D
:100BE0000E309DF816C084F804E0E7809DF817E009
:100BF0009DF81870208161819DF819009DF81A10E8
:100C0000A281E381079A9DF82030BDF810A0BDF8BD
:100C10001290BDF8148084F816C084F817E0277687
:100C20006076A176E26184F820302846A4F810A00E
:100C3000A4F81290A4F814809DF821809DF822C099
:100C40009DF823E09DF825109DF826209DF827307B
:100C50009DF8247084F822C084F823E084F82510DD
:100C600084F8262084F8273084F8218084F82470C2
:100C7000FFF74CFF01233C222046022103F08EFAAD
:100C80000221204602F07EFF2046A68266820135C0
:100C900003F01AFA00220A232046E281238203F09D
:100CA000BDFB092D04F128048AD14FF0FF30FFF776
:100CB0002DFF0AB0BDE8F087589FFF1F38B50D46DD
:100CC0000446FFF723FF0C4B04EB840403EBC4043E
:100CD000204603F0F9F900232946E38123822046C8
:100CE00008F064FA204603F099FB4FF0FF30BDE8AE
:100CF0003840FFF70BBF00BF589FFF1F30B50A4DAC
:100D000085B000242946684607F050FF2046694612
:100D1000FFF7D4FF0134684607F0F4FE092C05F113
:100D20001005EFD105B030BDC89EFF1F0022027034
:100D300042708270704700BF10B4017042708370BF
:100D400010BC7047407870478078704738B5054CC4
:100D5000A4F190052046103C07F0D4FEAC42F9D136
:100D600038BD00BF94B5FF1F2DE9F04F85B0AC4BE7
:100D70000293AC4BDFF8CCA2DFF8CCB20393002691
:100D8000CDE00022A84B4046494609F009FD0AF093
:100D900069F90746A54C98A3D3E9002344F82670C7
:100DA000DDE9000108F03EFC0022A14B09F0AAFE9B
:100DB0000022002380468946B7000AF029F900285E
:100DC00000F00D810022984B4046494609F0E8FCAE
:100DD0000AF048F98646974C87A3D3E9002344F8E4
:100DE00007E0DDE9000108F01DFC85A3D3E900233D
:100DF00009F088FE00220023804689460AF008F99F
:100E0000002800F0E2800022874B4046494609F066
:100E1000C7FC0AF027F98646874C884B44F807E060
:100E20000022DDE9000108F0FDFB77A3D3E90023F0
:100E300009F068FE00220023804689460AF0E8F89F
:100E4000002800F0B8800022774B4046494609F060
:100E5000A7FC0AF007F90746039C784B24F8027FA9
:100E60000022DDE90001039408F0DCFB68A3D3E96C
:100E7000002309F047FE00220023804689460AF03D
:100E8000C7F8002800F08D800022674B4046494695
:100E900009F086FC0AF0E6F80746029C674B24F846
:100EA000027F0022DDE90001029408F0BBFB58A399
:100EB000D3E9002309F026FE00220023804689465C
:100EC0000AF0A6F8002862D00022574B4046494657
:100ED00009F066FC0AF0C6F807460022574B2BF8CB
:100EE000027FDDE9000108F09DFB4BA3D3E900235D
:100EF00009F008FE0022002304460D460AF088F897
:100F0000A0B30022484B2046294609F049FC0AF0CC
:100F1000A9F80136B6F5807F2AF8020F34D03046A2
:100F20000AF082F946490AF087FA09F097FD32A3E0
:100F3000D3E90023CDE9000108F074FB30A3D3E925
:100F4000002309F0DFFD00220023804689460AF0D5
:100F50005FF800287FF415AF0022334B4046494626
:100F600009F01CFC0AF07EF8074613E700222E4B1E
:100F70002046294609F012FC0AF074F80136B6F54D
:100F8000807F2AF8020FCAD105B0BDE8F08F002299
:100F9000254B4046494609F001FC0AF063F8074634
:100FA0009BE70022204B4046494609F0F7FB0AF038
:100FB00059F8074671E700221B4B4046494609F0A5
:100FC000EDFB0AF04FF8074646E70022164B404675
:100FD000494609F0E3FB0AF045F886461CE7002283
:100FE000114B4046494609F0D9FB0AF03BF88646CA
:100FF000F1E600BFAFF30080000000A09999014026
:101000000000000000E05F400000000000FEAF4074
:10101000000000000032A34000000000009899404A
:10102000BEA0FF1FDEAEFF1F0000E03FE0B0FF1FCD
:1010300000805940C0A4FF1FC0AAFF1F0000044049
:1010400000007F43BEA8FF1FBEA2FF1F70B50D4D5D
:1010500014242E1901E055F8044FE4B22046012172
:1010600006F048FD2046084906F0BCFCB542F2D126
:101070000C2006F0A7FC054805F046FCBDE87040D2
:10108000FFF772BEB80401003F540946048AFF1FEF
:101090000B282AD8F0B4154C2388984203D3134860
:1010A000F0BC05F0C7BCC1F30727114B114E53F834
:1010B0002730114AA568C1F30747C9B256F827601F
:1010C00052F821201B0200EB400003EB06431344BF
:1010D0002B54A268024419125170A26810441B14C8
:1010E0008370F0BC014805F0A5BC7047048AFF1F5F
:1010F000C0A4FF1FE0B0FF1FC0AAFF1F082800D92F
:101100007047024B53F82000FFF7C2BF9404010060
:10111000022800D97047024B53F82000FFF7B8BFF0
:10112000D004010005281ED8DFE800F011150903DE
:1011300003110E4B33F81110052803D970470C4BDF
:1011400033F811100B4B13F8200006F03DBB0A4B8F
:1011500033F81110F0E7094B33F81110054B13F871
:10116000200006F031BB0021E6E700BFC0A8FF1F4A
:10117000C0A2FF1FB8040100E0AEFF1FC0A0FF1F08
:101180002DE9F043DFF8A0815B4DDFF8A0915B4CC7
:101190005B495C4F91B0404607F0F4FC2A46494653
:1011A00040460AF007FC2046574907F0EBFC2A4668
:1011B000494620460AF0FEFB06230422214604A8E5
:1011C00007F0ECFD04A9684607F0F0FC6846202112
:1011D00007F084FD032300220646214608A807F0F5
:1011E000DDFD08A9304607F071FD202107F076FDEE
:1011F0000B230722064621460CA807F0CFFD0CA9B9
:10120000304607F063FD0146384607F0CFFC0CA8D6
:1012100007F078FC08A807F075FC68463B4C3C4E8C
:1012200007F070FC04A807F06DFC2A4649463846D2
:101230000AF0C0FB2046374907F0A4FC314604F110
:10124000100007F09FFC0CA8334907F09BFC4146B7
:101250000CA807F03BFD014604F1200007F0A6FCB6
:101260000CA807F04FFC06230022394608A807F017
:1012700095FD08A904A807F099FC04A80A2107F025
:101280002DFD0B230722804639460CA807F086FD6A
:101290000CA9404607F01AFD014604F1300007F0A2
:1012A00085FC0CA807F02EFC04A807F02BFC08A86E
:1012B00007F028FC04F14000184907F063FC04F132
:1012C0005000174907F05EFC314604F1600007F05A
:1012D00059FC314604F1700007F054FC314604F12A
:1012E000800007F04FFC2A460E4900200AF062FBFE
:1012F00011B0BDE8F08300BFFC89FF1FC0AEFF1F27
:10130000A003010004B5FF1FA803010014B5FF1FCF
:10131000C8030100B4030100C0030100CC030100B5
:10132000D80301004D0D0000D0AEFF1F058B00005B
:1013300010B4182400210122047041600272416837
:10134000027AC160027410BC704700BF01F007024E
:1013500081F0040110B442F01802C1F380010024AE
:101360000270446001724168027AC160027410BC6C
:10137000704700BF02784BB2920010B402F00C022A
:1013800003F003042243012404FA02F248F2214448
:1013900014406CB942F614041440A4B1027802F06F
:1013A0001802102A0BD003F0070343F01003037058
:1013B00081F00401C1F38001017210BC70474268E2
:1013C000013A4260EFE744F2821414405CB903F042
:1013D000070381F0040143F01803C1F38001037097
:1013E00010BC01727047027802F01802082A02D17C
:1013F00042680132426003F0070381F0040143F0C8
:101400000803C1F38001037010BC0172704700BF74
:10141000C26843689A4204D043684168C160981A20
:1014200070470020704700BF027A034602F0FF00B9
:1014300022B11A7C12B901221A7470471A7A1A74EE
:1014400000207047027A034602F0FF011AB9007CBF
:1014500008B1197470471A7A1A740020704700BFD7
:1014600000220270427070470078704703788B4208
:1014700018BF0170704700BF43788B4218BF41709E
:10148000704700BF38B5054CA4F190052046103CCC
:1014900007F038FBAC42F9D138BD00BF48B7FF1F99
:1014A0002DE9F041022184B0072006F023FB022140
:1014B000082006F01FFB0221092006F01BFB1E4C32
:1014C000DFF87880202647F2777701AD32460A218F
:1014D000284603F049F895E8070084E8070020460D
:1014E00068220A2103F0E6F820464FF6FF72002139
:1014F00003F064F920464FF6FF72022103F05EF913
:1015000020463A46042103F059F9204600220821DA
:1015100003F054F9013620464FF6FF720C2103F018
:101520004DF9232E04F10C0402D038F8027FCDE7E8
:1015300004B0BDE8F08100BF84B6FF1FF0040100D5
:101540002DE9F0412A4E88B001AD00243019122156
:1015500003F030F80C34242C25F8020BF6D1DFF818
:10156000A080244F00250C2101E018F8011F08AAD3
:101570000B0902EB430301F00F0133F81C3C43FA63
:1015800001F101F0070103A803ACFFF7DFFE0FCC68
:101590007E197851143520783074B42D7160B260A2
:1015A000F360E2D1144D154E00242B2102E015F812
:1015B000011F033408AA0B0902EB430301F00F01DA
:1015C00033F81C3C43FA01F101F0010181F0010103
:1015D00003A8FEF751FF3319BDF80C109DF80E203B
:1015E00031530F2C9A70E2D108B0BDE8F08100BFF2
:1015F00084B6FF1FB4B5FF1FDC04010068B6FF1FEF
:10160000E4040100214B2DE9F041054600EB4000C8
:10161000102103EB800002F0CDFF1D4C1D4F06464C
:1016200004F1B4080C2104E01434444510D017F838
:10163000011FB5EB111FF7D101F00F0146FA01F1BF
:10164000204601F007011434FFF794FE4445EED123
:10165000114C124F04F105082B2301E014F8013F4F
:10166000B5EB131F05D0444507F10307F6D1BDE8DC
:10167000F08103F00F0146FA01F101F0010181F060
:1016800001013846FEF7FCFEEDE700BF84B6FF1F00
:10169000B4B5FF1FE4040100DC04010068B6FF1FBD
:1016A00008B5072006F03AF80020FFF7ABFF00224C
:1016B00002490720BDE8084005F0B4BFA1160000AC
:1016C00008B5082006F02AF80120FFF79BFF00224A
:1016D00002490820BDE8084005F0A4BFC11600007B
:1016E00008B5092006F01AF80220FFF78BFF002248
:1016F00002490920BDE8084005F094BFE11600004A
:1017000008B5FFF7CDFEFFF71BFF002207490720B2
:1017100005F088FF00220649082005F083FF00221B
:1017200004490920BDE8084005F07CBFA11600006F
:10173000C1160000E116000038B5284C00250BE06A
:101740002046FFF77FFEA8B92046FFF761FE14345C
:10175000D0B90135092D1ED02046FFF765FE0028BF
:10176000EED02846012101F051FA2046FFF76AFE2B
:101770000028E9D00021284601F048FA2046FFF76A
:1017800047FE14340028E4D001462846013501F014
:10179000E9F9092DE0D1124C002507E02046FEF7BB
:1017A0007FFE033488B90135062D15D02046FEF79B
:1017B00069FE0028F2D00121284601F03FFA2046B8
:1017C000FEF76EFE03340028EDD0284600210135D7
:1017D00001F034FA062DE9D138BD00BFB4B5FF1FC2
:1017E00068B6FF1F30B561496148624C91B007F09F
:1017F000C9F9614A61495E480AF0DCF8604961480C
:1018000007F0C0F95C4A5D495E480AF0D3F8062348
:10181000042204A85B4907F0C1FA04A9684607F04E
:10182000C5F92021684607F059FA0323002205462E
:10183000544908A807F0B2FA08A9284607F046FA62
:10184000202107F04BFA0B23072205464D490CA82F
:1018500007F0A4FA0CA9284607F038FA01464A48CE
:1018600007F0A4F90CA807F04DF908A807F04AF909
:10187000684607F047F904A807F044F93E4A3F4993
:1018800041480AF097F84149414807F07BF941493E
:10189000414807F077F941490CA807F073F934493A
:1018A0000CA807F013FA01463D4807F07FF90CA891
:1018B00007F028F90623002208A8334907F06EFA3A
:1018C00008A904A807F072F90A2104A807F006FA8B
:1018D0000B23072205462C490CA807F05FFA0CA938
:1018E000284607F0F3F901462E4807F05FF90CA8E7
:1018F00007F008F904A807F005F908A807F002F9AD
:1019000029492A4807F03EF929492A4807F03AF9B7
:101910002049294807F036F91E49284807F032F9CE
:101920001C49274807F02EF9134A264900200AF0DF
:1019300041F8254802F00CFE244802F009FE244834
:1019400002F006FE04F1B40520461434FFF7F0FC63
:10195000A542F9D11F4C04F11B0520460334FEF7C4
:1019600085FDA542F9D111B030BD00BFA003010033
:10197000A8B6FF1FB4B5FF1FFC89FF1F058B000031
:10198000A8030100A4B5FF1FB8B6FF1FB4030100F0
:10199000C8B6FF1FC8030100D8B6FF1FC00301006F
:1019A000E8B6FF1FF8B6FF1FCC03010008B7FF1F02
:1019B000D803010018B7FF1F28B7FF1F38B7FF1F54
:1019C00048B7FF1F8514000084B6FF1F90B6FF1FA5
:1019D0009CB6FF1F68B6FF1F10B5074C04F120002E
:1019E00007F090F804F1100007F08CF82046BDE8ED
:1019F000104007F087B800BFB4B7FF1F2DE9F041D2
:101A00001B4E88B0316801A803F0BAFA00240327FE
:101A100033191820D3F8108007F0EEFB0546414635
:101A200003F0EAF82B78032B1FD0039902980131B9
:101A300089000AF0BDFBC0B1039B02905A1C40F81C
:101A4000235003921034202CE2D10A4803F0B0F85E
:101A5000084901A803F0A2FA064803F0B7F801A864
:101A600003F0C8F908B0BDE8F0818DF81070E9E71F
:101A7000B4B7FF1FF4B7FF1F70B50D4E3378012BBD
:101A800004460D4605D0FFF7B9FF0123337000F07F
:101A9000A9FC084B2A461968204603F029FA0028B9
:101AA00005DD29182046BDE8704001F0EDB870BD95
:101AB00068B7FF1F08B8FF1F10B588B0016801A8FC
:101AC00003F05EFA182007F097FB0446012103F0AB
:101AD000ADF82378032B1BD00399029801318900BC
:101AE0000AF066FBA0B1039B02905A1C40F8234009
:101AF0000392094803F05CF8074901A803F04EFA85
:101B0000054803F063F801A803F074F908B010BDAC
:101B100003238DF81030ECE7F4B7FF1F30B589B020
:101B20000D46016801A803F02BFA182007F064FBAA
:101B30000446294603F084F82378032B1BD003992D
:101B40000298013189000AF033FBA0B1039B029097
:101B50005A1C40F823400392094803F029F8084929
:101B600001A803F01BFA064803F030F801A803F0BF
:101B700041F909B030BD03238DF81030ECE700BF08
:101B8000F4B7FF1F2DE9F843DFF86881414C424D5F
:101B9000424F4349434EDFF86091404606F0F2FF62
:101BA00022462946404609F005FF38463E49DFF8FF
:101BB0004C8106F0E7FF22462946384609F0FAFE36
:101BC00030463A493A4F06F0DDFF22462946304674
:101BD00009F0F0FE48463749374E06F0D3FF22465B
:101BE0002946484609F0E6FE40463449DFF81091A0
:101BF00006F0C8FF22462946404609F0DBFE38467B
:101C00002F49DFF8008106F0BDFF224629463846FD
:101C100009F0D0FE30462B492B4F06F0B3FF224689
:101C20002946304609F0C6FE48462849284E06F0A7
:101C3000A9FF22462946484609F0BCFE40462549F0
:101C400006F0A0FF22462946404609F0B3FE38467A
:101C5000214906F097FF22462946384609F0AAFE98
:101C600030461E4906F08EFF06F110001C4906F0B2
:101C700089FF06F120001B4906F084FF22461A491D
:101C8000002009F097FE19491948BDE8F84302F011
:101C900045BF00BFFC89FF1F058B00002CB8FF1F4C
:101CA000E80301003CB8FF1FF0030100F40301004A
:101CB00008B8FF1FFC0301004CB8FF1F040401001B
:101CC0000804010014040100A0B7FF1F2004010054
:101CD000B4B7FF1F2C040100340401003C040100D0
:101CE0004C04010060040100D91900008892FF1F14
:101CF000F4B7FF1FE4B7FF1F1CB8FF1F8CB7FF1F0F
:101D00006CB7FF1F58B7FF1F10B5154988B00446C0
:101D100007F032F801300FD0124802F049FF124BA1
:101D200010489A68196802F0CFFD0E4802F04EFF85
:101D3000FFF764FE08B010BD01A803F021F8A26807
:101D4000216801A803F05CFC084B094A196801A846
:101D5000002303F0E9F801A803F04CF808B010BD27
:101D6000E4B7FF1FF4B7FF1F2CB8FF1F3CB8FF1FDD
:101D7000791A000010B50B4C4FF4E131204602F007
:101D800015FF204602F014FF074B20469A68196899
:101D900002F09AFD204602F019FFBDE81040FFF75F
:101DA0002DBE00BFF4B7FF1F2CB8FF1F70B54A4D02
:101DB000296811F001048AB03DD0484802F0F4FDD2
:101DC00000280ADD441E454802F09AFD013CC1B2DC
:101DD000434806F06BFF631CF5D1404802F0AEFEAD
:101DE00088B9404C22683F4D5AB13F4B1B68029363
:101DF000029B41F288319B1A8B4234D83B4C2278AB
:101E00005AB30AB070BD3648364CFFF77DFF364BEB
:101E1000364A1B680193019921600023194603A8E3
:101E2000137006F0AFFE03A92D4806F0FBFE03A8D1
:101E300006F068FED6E7284605F08EFF0028BCD0E5
:101E40002146274806F09EFE284605F08BFF284ACB
:101E50002849234809F0AEFDAFE740F6C41293428B
:101E600009D80AB070BD244B204C00261E7000F02B
:101E7000CBFA2E602670214B03A8196803F080F876
:101E8000182007F0B9F905461D4902F0B5FE2B7878
:101E9000032B1DD0059B0498591C89000AF088F972
:101EA000B0B1059B04905A1C40F8235005920B4892
:101EB00002F07EFE094903A803F070F8074802F01B
:101EC00085FE012303A8237002F094FF0AB070BDC1
:101ED00003238DF81830EAE718B8FF1FF4B7FF1F87
:101EE0007CB7FF1F9CB7FF1FE8BFFF1FB0B7FF1FE6
:101EF000FC89FF1F058B000068B7FF1F4CB8FF1F50
:101F0000F804010038B5054CA4F190052046103CBA
:101F100006F0F8FDAC42F9D138BD00BF1CB9FF1F77
:101F2000F0B5002185B000F11806174F044606F001
:101F300029FE3046002106F025FE3946684606F0A7
:101F400035FE6946204606F06DFE684606F0DAFD6D
:101F500000250023636139462574684606F026FE95
:101F60006946304606F05EFE684606F0CBFD01236A
:101F7000204684F8295084F83050E56284F82830EF
:101F800084F82A3005B0F0BD5CB8FF1F70B58B68CF
:101F900084B0044633B9194906F0C6FE0546D0B1EF
:101FA00004B070BD0D4606F0BFFE06460028F7D10E
:101FB0002946684606F0FAFD6946204606F032FEDC
:101FC000684606F09FFD012384F82960267484F892
:101FD000283004B070BD6846084906F0E7FD694640
:101FE000204606F01FFE684606F08CFD012384F8AB
:101FF0002950257484F8283004B070BD5CB8FF1FE8
:10200000037C23B100220123027480F8283070473A
:1020100038B590F82A3004460D461BB1406909F0E6
:10202000EBFA38B90123656184F82A30237484F807
:10203000283038BD237C002BF4D0FAE7C36A8B42EA
:1020400018BFC162704700BF90F82800704700BFFA
:1020500090F82900704700BF90F829308B4204D0D7
:10206000012380F8291080F828307047F0B590F8E7
:10207000283085B00446FBB1037C03B390F82A30C6
:102080002BB390F8293040692668002B0CBF20271D
:10209000462708F0E3FC04F13005CDE90201009782
:1020A000334628460F4A14210AF08CFA00232846AA
:1020B00084F8283005B0F0BD00F13005F6E700F1F6
:1020C00030052846142208490AF0D8FDEEE7826957
:1020D0000368009200F130052846044A14210AF0F2
:1020E00071FAE3E708050100C803010018050100C3
:1020F000037C0BB1C06A7047184670472DE9F04762
:10210000DFF8B891604D614E614C6249DFF8B081F3
:10211000DFF8B0A190B0484606F034FD2A463146BB
:10212000484609F047FC20465B4906F02BFD2A464D
:102130003146204609F03EFC06230422214604A82D
:1021400006F02CFE04A9684606F030FD6846202102
:1021500006F0C4FD032300220746214608A806F026
:102160001DFE08A9384606F0B1FD202106F0B6FD97
:102170000B230722074621460CA806F00FFE0CA9E8
:10218000384606F0A3FD0146404606F00FFD0CA8B8
:1021900006F0B8FC08A806F0B5FC68463F4C404F76
:1021A00006F0B0FC04A806F0ADFC2A4631464046D5
:1021B00009F000FC20463B4906F0E4FC394604F1F6
:1021C000100006F0DFFC0CA8374906F0DBFC49469E
:1021D0000CA806F07BFD014604F1200006F0E6FCA9
:1021E0000CA806F08FFC06230022414608A806F042
:1021F000D5FD08A904A806F0D9FC04A80A2106F018
:102200006DFD0B230722814641460CA806F0C6FD52
:102210000CA9484606F05AFD014604F1300006F0CC
:10222000C5FC0CA806F06EFC04A806F06BFC08A820
:1022300006F068FC04F140001C4906F0A3FC04F120
:1022400050001B4906F09EFC394604F1600006F080
:1022500099FC394604F1700006F094FC394604F10B
:10226000800006F08FFC2A461249002009F0A2FBEC
:102270005046114906F086FC2A463146504609F080
:1022800099FB10B0BDE8F087FC89FF1F058B0000AB
:102290006CB8FF1FA0030100A80301009CB8FF1F3A
:1022A000C8030100B4030100C0030100CC03010016
:1022B000D8030100051F0000240501007CB8FF1FA2
:1022C0008CB8FF1F5CB8FF1F10B5074C04F120004D
:1022D00006F018FC04F1100006F014FC2046BDE8DE
:1022E000104006F00FBC00BF60BBFF1F38B5054CA7
:1022F000A4F190052046103C06F004FCAC42F9D154
:1023000038BD00BFD8BEFF1F38B5074CA4F5D8753F
:10231000303C04F1180006F0F5FB04F1080006F06B
:10232000F1FBAC42F4D138BD3CBBFF1F38B5074CC4
:10233000A4F51975443C04F1180006F0E3FB2046AF
:1023400006F0E0FBAC42F5D138BD00BF18BEFF1F60
:10235000F0B591B0214F00EB400424014FF07E56C0
:102360000546169800900296019604A83E1900F0C2
:1023700077FF9DF81020059B3A5504F10800736023
:1023800006A9384406F04EFC04F118000AA93844A6
:1023900006F048FC0E9A0F9BB262F3620AA806F0A0
:1023A000B1FB06A806F0AEFB0D4B05EB051503EBE4
:1023B0008505314604A800F0A3FF04A92846FFF7CD
:1023C000E5FD04A806F09EFB304600F097FF0146AD
:1023D0002846FFF733FE11B0F0BD00BF8CB9FF1FD8
:1023E000B4BBFF1F08B50748FFF73EF818B9012135
:1023F0000448FFF73BF84FF47F410020BDE8084058
:10240000FEF786BE5CBBFF1F38B50C48FFF72CF803
:1024100070B90B4C04F5197520464434FFF7F0FDF4
:10242000AC42F9D107490020BDE83840FEF770BE44
:1024300000210248FFF71AF8EBE700BF5CBBFF1F63
:10244000B4BBFF1F0088FF0030B5A54883B0FEF77E
:1024500079FC0546A248FEF777FC0446002858D0D0
:10246000012807D0022800F00982032800F09C8090
:1024700003B030BD002D00F0E580012D40F0B281A9
:10248000984C00940022234611461046FFF760FF47
:1024900000222846234611460094FFF759FF0022E8
:1024A0002346114600940220FFF752FF00222346E4
:1024B000114600940320FFF74BFF8B4B00934FF620
:1024C000FF728A4B00210420FFF742FF884B0093E4
:1024D0004FF0FF12874B00210520FFF739FF864B95
:1024E0000093864A864B00210620FFF731FF854B7B
:1024F0000093854A854B00210720FFF729FF844B75
:1025000000936FF07F42834B00210820FFF720FFEC
:10251000AEE7814B00930146804B724D6FF07F42D6
:10252000FFF716FF7E4B009321467E4B4FF47F4210
:102530000120FFF70DFF7C4B009321467B4B4FF4AE
:102540007F420220FFF704FF2B46224621460095DA
:102550000320FFF7FDFE764B00932146754BFF22CB
:102560000420FFF7F5FE744B00932146734BFF22C6
:102570000520FFF7EDFE724B00932146714BFF22C1
:102580000620FFF7E5FE704B009321466F4BFF22BC
:102590000720FFF7DDFE00952B4622462146082046
:1025A000FFF7D6FE03B030BD0021694B009308460B
:1025B000684B4FF6FF72FFF7CBFE674B00934FF669
:1025C000FF72664B00210120FFF7C2FE644B0093AF
:1025D0004FF6FF72634B00210220FFF7B9FE624BFA
:1025E00000932046614B4FF6FF720021FFF7B0FECB
:1025F0005F4B0093FF225F4B00210420FFF7A8FEF2
:102600005D4B0093FF225D4B00210520FFF7A0FEEC
:102610005B4B0093FF225B4B00210620FFF798FEE7
:10262000594B0093FF22594B00210720FFF790FEE2
:10263000574B0093574A584B00210820FFF788FE5C
:1026400003B030BD554B009329462846544B4FF4F8
:102650007F02FFF77DFE534B009320462946524BE5
:10266000524AFFF775FE524B00932946514B4FF4E7
:102670007F420220FFF76CFE1B4B009329461B4B49
:102680004FF6FF720320FFF763FE4B4B0093294682
:102690004A4BFF220420FFF75BFE494B009329467B
:1026A000484B3C4A0520FFF753FE474B0093294611
:1026B000464B474A0620FFF74BFE464B0093294600
:1026C000454B6FF07F420720FFF742FE434B0093DC
:1026D0002946434B2F4A0820FFF73AFEC8E600BFC1
:1026E000E8BEFF1FC8030100D4050100CC050100AE
:1026F0002C060100240601004006010000BBFF007B
:10270000380601004C06010088BBFF0048060100A6
:102710005806010054060100340501002805010097
:10272000400501003C05010050050100480501007D
:1027300060050100580501007005010068050100F1
:10274000840501007805010098050100900501004D
:10275000240701001C0701003807010030070100B1
:102760004C07010044070100600701005807010001
:10277000780701006C070100900701008407010041
:10278000A80701009C070100C0070100B407010071
:10279000D8070100FF00A000CC070100A40501003C
:1027A000A0050100B4050100AC0501000088FF0090
:1027B000C4050100BC050100E4050100DC050100C1
:1027C000F4050100EC05010004060100FC05010010
:1027D00066FFAA00140601000C0601002006010095
:1027E0001C0601000021464B00930846454B4FF460
:1027F0007F02FFF7ADFD444B00932046434B444A14
:102800000021FFF7A5FD434B00934FF47F42424B5D
:1028100000210220FFF79CFD404B00934FF6FF7212
:102820003F4B00210320FFF793FD3E4B0093FF2217
:102830003D4B00210420FFF78BFD3C4B00933C4AAD
:102840003C4B00210520FFF783FD3B4B00933B4AA7
:102850003B4B00210620FFF77BFD3A4B00936FF0C6
:102860007F42394B00210720FFF772FD374B009361
:10287000002211460820FFF76BFDF9E5334D009566
:1028800000222B4611461046FFF762FD00222B4620
:10289000114600950120FFF75BFD002220462B46E4
:1028A00011460095FFF754FD00222B461146009576
:1028B0000320FFF74DFD00222B4611460095042012
:1028C000FFF746FD00222B46114600950520FFF735
:1028D0003FFD00222B46114600950620FFF738FDEC
:1028E00000222B46114600950720FFF731FD0022FC
:1028F00000952B4611460820FFF72AFDB8E500BFDA
:1029000068060100600601008006010074060100EF
:102910000088FF00980601008C060100B006010047
:10292000A4060100C8060100BC060100E006010083
:10293000FF00A000D4060100F806010066FFAA000F
:10294000EC0601001007010004070100C8030100A4
:1029500030B51C4C89B06846002106F013F904F527
:10296000D87502E03034AC4227D0204600F0DAFCC3
:102970000028F7D1144904A806F004F904A9684610
:1029800006F050F904A806F0BDF8214604A800F0AE
:10299000BFFC04A9684606F085F904A806F0B2F861
:1029A000009904A806F0EEF804A8FFF785F8303483
:1029B00004A806F0A7F8AC42D7D1684606F0A2F802
:1029C00009B030BD8CB9FF1FE807010070B5194C84
:1029D000194D206800EB001084B005EB8000FFF774
:1029E00033FB40B92368134A0133082BC8BF0023C7
:1029F000136004B070BD266806EB061005EB80007E
:102A0000FFF734FB0146684606F0BCF869463046DD
:102A1000FEF754F9684606F075F8266806EB0610CE
:102A200005EB8000FFF764FB01463046FEF766FBCE
:102A3000D8E700BFB0BBFF1FB4BBFF1F10B5002815
:102A400082B001DB032912D900241148FEF77CF97A
:102A5000A04218BF20464FF0000104F1010408BF56
:102A60006421FEF75FFB042CEFD102B010BDCBB2A6
:102A7000C2B2002101A8FEF75FF9019A044B110CC4
:102A800099701A80FFF7E0FCFFF762FFDCE700BFF8
:102A9000E8BEFF1F70B5274C274D92B001A8FEF786
:102AA000DFFCBDF80430238020460021FEF7DEFC69
:102AB00020460021FEF7E0FC05F519760DF14704EC
:102AC00001A8FFF72DFA01A9284606F0ABF89DF8FA
:102AD0001420069B2A7407A905F118006B6106F003
:102AE000A1F89DF82E200C9B9DF82C009DF82D1030
:102AF00085F82A20EB6285F8280085F8291005F171
:102B000030020DF1330313F8011F02F8011BA34239
:102B1000F9D107A805F0F6FF443501A805F0F2FF4A
:102B2000B542CDD100210846FFF788FFFFF76CFCC6
:102B300012B070BD5CBBFF1FB4BBFF1F012801D0EA
:102B40000020704708B50648FEF7FCF8012801D9B7
:102B5000002008BD0248FEF7F5F80130C0B208BDFC
:102B6000E8BEFF1F30B589B004460D4668462249CD
:102B700006F01CF8082C31D8204B04EB041003EBB2
:102B80008000FFF765FA90BB1D49684606F08AF899
:102B90001C4B04EB440403EB0414204600F0ACFB94
:102BA000214604A800F0B4FB04A9684606F07AF8B0
:102BB00004A805F0A7FF204600F0B2FB0446284613
:102BC00008F032FB214608F083FB01466846FEF719
:102BD000A5FF684605F096FF09B030BD0849684674
:102BE00006F060F8684605F08DFF09B030BD064973
:102BF000684606F057F8CBE74CB9FF1FB4BBFF1F80
:102C00002CB9FF1F8CB9FF1FA0BBFF1F09B10828FB
:102C100000D9704710B5084C00EB001004EB80049D
:102C20002046FFF715FA80F00101C9B22046BDE841
:102C30001040FFF711BA00BFB4BBFF1F10B5044628
:102C400039B103280CD92046FF21BDE81040FEF71A
:102C500069BA002803DB032C08DD052CF5DD10BD67
:102C6000FFF76CFF2146FFF7E9FEECE70548FEF7AA
:102C70006BF884420CBF642100212046BDE810405F
:102C8000FEF750BAE8BEFF1F2DE9F047214D224C58
:102C900084B080468A4605F5197704E04435BD4284
:102CA00004F130042ED0204600F026FB0646002812
:102CB000F4D12146684600F02BFB5246009940466D
:102CC00002F016F98146684605F01CFFB9F1000FC5
:102CD0004046E3DD02F060F900283146404614DD4D
:102CE00002F002F9314680B1404602F091F802F05C
:102CF00025F8014628464435FFF78AF9BD4204F11C
:102D00003004D0D104B0BDE8F0872846FFF778F949
:102D1000C4E700BFB4BBFF1F8CB9FF1F30B59E498D
:102D20009E489F4C91B005F02DFF9E4A9E499B48BE
:102D300008F040FE9D499E4805F024FF994A9A49B3
:102D40009B4808F037FE0623042204A8984906F0A1
:102D500025F804A9684605F029FF2021684605F0FA
:102D6000BDFF032300220546914908A806F016F886
:102D700008A9284605F0AAFF202105F0AFFF0B2384
:102D8000072205468A490CA806F008F80CA928462F
:102D900005F09CFF0146874805F008FF0CA805F0E8
:102DA000B1FE08A805F0AEFE684605F0ABFE04A82B
:102DB00005F0A8FE7B4A7C497E4808F0FBFD7E4971
:102DC0007E4805F0DFFE7E497E4805F0DBFE7E4949
:102DD0000CA805F0D7FE71490CA805F077FF014655
:102DE0007A4805F0E3FE0CA805F08CFE06230022CD
:102DF00008A8704905F0D2FF08A904A805F0D6FE7E
:102E00000A2104A805F06AFF0B2307220546694939
:102E10000CA805F0C3FF0CA9284605F057FF014692
:102E20006B4805F0C3FE0CA805F06CFE04A805F085
:102E300069FE08A805F066FE6649674805F0A2FE2F
:102E40006649674805F09EFE5D49664805F09AFEB2
:102E50005B49654805F096FE5949644805F092FEC5
:102E6000504A6349002008F0A5FD6249624805F018
:102E700089FE4C4A4C49604808F09CFD5F49604817
:102E800005F080FE474A48495D4808F093FD5D49DA
:102E90005D4805F077FE434A43495B4808F08AFDE8
:102EA0005A495B4805F06EFE3E4A3F49584808F0D3
:102EB00081FD5849584805F065FE3A4A3A49564856
:102EC00008F078FD5549564805F05CFE354A36490C
:102ED000534808F06FFD5349534805F053FE314AFB
:102EE0003149514808F066FD5049514805F04AFE05
:102EF0002C4A2D494E4808F05DFD4E494E4805F0DC
:102F000041FE284A28494C4808F054FD4B494C489A
:102F100005F038FE234A2449494808F04BFD494949
:102F2000494805F02FFE4949494805F02BFE49491B
:102F3000494805F027FE1B4A4849002008F03AFDA1
:102F40004749484805F01EFE164A1749454808F00B
:102F500031FD4548FDF7EAFE04F5D87520463034CA
:102F600000F0B8F9A542F9D10E4A4049404C002082
:102F700008F020FD3F48FEF773FA04F51975204666
:102F80004434FEF7CDFFA542F9D1064A3A49002064
:102F900008F010FD11B030BDA00301005CB9FF1FA7
:102FA0008CB9FF1FFC89FF1F058B0000A8030100DF
:102FB0003CBBFF1F38BEFF1FB403010058BEFF1FFC
:102FC000C803010068BEFF1FC003010078BEFF1FD9
:102FD00088BEFF1FCC03010098BEFF1FD80301006D
:102FE000A8BEFF1FB8BEFF1FC8BEFF1FD8BEFF1F71
:102FF000ED220000E803010090BBFF1FF003010079
:1030000048BEFF1FF40301006CB9FF1FFC03010061
:103010004CBBFF1F040401007CB9FF1F0804010022
:1030200018BEFF1F1404010028BEFF1F200401006A
:103030004CB9FF1F2C0401002CB9FF1F3404010000
:10304000A0BBFF1F3C04010060BBFF1F4C0401003C
:1030500070BBFF1F6004010080BBFF1FC92200007E
:10306000240501003CB9FF1FE8BEFF1F0923000033
:10307000B4BBFF1F5CBBFF1F2D23000038B5054C00
:10308000A4F190052046103C05F03CFDAC42F9D17E
:1030900038BD00BF9CBFFF1F08B50121022004F00E
:1030A00029FD01210220BDE8084004F01DBD00BF3C
:1030B0002DE9F043DFF8A0815B4DDFF8A0915B4C78
:1030C0005B495C4F91B0404605F05CFD2A4649469D
:1030D000404608F06FFC2046574905F053FD2A464C
:1030E0004946204608F066FC06230422214604A82F
:1030F00005F054FE04A9684605F058FD68462021F5
:1031000005F0ECFD032300220646214608A805F041
:1031100045FE08A9304605F0D9FD202105F0DEFD69
:103120000B230722064621460CA805F037FE0CA902
:10313000304605F0CBFD0146384605F037FD0CA8BA
:1031400005F0E0FC08A805F0DDFC68463B4C3C4E71
:1031500005F0D8FC04A805F0D5FC2A4649463846B7
:1031600008F028FC2046374905F00CFD314604F1F3
:10317000100005F007FD0CA8334905F003FD41469A
:103180000CA805F0A3FD014604F1200005F00EFD9A
:103190000CA805F0B7FC06230022394608A805F064
:1031A000FDFD08A904A805F001FD04A80A2105F009
:1031B00095FD0B230722804639460CA805F0EEFD4D
:1031C0000CA9404605F082FD014604F1300005F0EF
:1031D000EDFC0CA805F096FC04A805F093FC08A8EB
:1031E00005F090FC04F14000184905F0CBFC04F117
:1031F0005000174905F0C6FC314604F1600005F0A7
:10320000C1FC314604F1700005F0BCFC314604F10C
:10321000800005F0B7FC2A460E49002008F0CAFBE2
:1032200011B0BDE8F08300BFFC89FF1FECBEFF1F9B
:10323000A00301000CBFFF1FA80301001CBFFF1F5C
:10324000C8030100B4030100C0030100CC03010066
:10325000D80301007D300000FCBEFF1F058B00007D
:103260002DE9F04F044685B000F1080715468A465F
:1032700004F11806384600219B46DDF83C90DDF845
:10328000408025F07F4505F07DFC3046002105F0AB
:1032900079FC594684F800A06560684605F072FC28
:1032A0006946384605F0BEFC684605F02BFC0E99D1
:1032B000684605F067FC6946304605F0B3FC684691
:1032C00005F020FC2046C4F82890C4F82C8005B0F6
:1032D000BDE8F08F10B584B0064B00934FF07E51DF
:1032E00000220291019111460446FFF7B9FF2046E2
:1032F00004B010BDC80301000078704740687047F3
:1033000010B50831044605F051FC204610BD00BF41
:1033100010B51831044605F049FC204610BD00BF29
:10332000806A7047006AB0FA80F04009704700BFB9
:1033300000207047704700BF2DE9F04F85B09946D7
:10334000BDF93870BDF83CA0BB1AC1EB090B002BCE
:10335000B8BF5B42BBF1000FB8BFCBF1000B5B45C0
:103360000D4616460093804648DC4D453A463346A6
:103370004CDC194613460A46C5EB09019B1A89B273
:10338000002B0CB2B8BF5B4204EBD474BE42ACBF9E
:103390004FF0FF3201224D45039102924FEA64043F
:1033A00029DC9BB201930DE0D8F80070BF69B847E3
:1033B000019BE41AA3B21CB20135002C2DB211DB23
:1033C000A94518DB009B5B452A46534631464046DB
:1033D000EADCD8F800205346976929463246404631
:1033E000B847E5E7029A1644039AA94502EB03049D
:1033F00036B224B2E6DA05B0BDE8F08F4A462B4675
:10340000B94635464D4517461E46B2DD304629467B
:103410003E464D4607468946AEE700BF10B40468F5
:103420002469A44610BC604730B40468BDF8085055
:103430000295A46BA44630BC604700BF30B404685A
:10344000BDF808500295E46BA44630BC604700BF4D
:1034500070B40468BDF90C60BDF810500396049573
:10346000246CA44670BC6047704700BF10B582B0A2
:10347000B0F90C2001910168009200220C6CB0F9A7
:103480000A301146A04702B010BD00BF704700BF10
:1034900001F003010129017606D0032904D0C28876
:1034A00003894281838170470289C3884281838175
:1034B000704700BF2DE9F0410568134E6F6986B073
:1034C000B7420446BDF8308010D1013B13441BB213
:1034D0000093CDF804800B46AD6A2046A8472368C8
:1034E000DB6AB3420AD106B0BDE8F08105930492CD
:1034F0000391B84703A925680EC9E6E7204606B040
:10350000BDE8F041184700BF693400002DE9F041E3
:103510000568124E6F6986B0B7420446BDF8308028
:103520000FD1013BCDF804800B4400921BB2AD6A71
:103530002046A8472368DB6AB3420AD106B0BDE83B
:10354000F081059304920391B84703A925680EC939
:10355000E7E7204606B0BDE8F041184769340000AF
:103560002DE9F04F0568DFF858B06F6985B05F4509
:103570000646BDF93890BDF83CA00C46904615D1E2
:103580001F19BC420CDACDF800A0214601342D6A87
:103590004B464246304624B2A847BC423568F2DB6F
:1035A000EB6A5B4507D105B0BDE8F08F0393B847E0
:1035B0003568039BE4E7304605B0BDE8F04F184797
:1035C000693400002DE9F04387B099420546BDF902
:1035D0003840BDF83C6025D0A24212D00768DFF821
:1035E0008080D7F81490C14532D18DE8500028462C
:1035F000BC6AA0472B68DB6A434524D107B0BDE80D
:10360000F083994202DD08461946034628680E9663
:10361000C46B01335B1A1BB22846A44607B0BDE851
:10362000F0436047A24202DD134622461C4628684A
:103630000E96631C846B9B1A1BB22846A44607B0E7
:10364000BDE8F0436047284607B0BDE8F04318479F
:10365000059304920391C84703A92F680EC9C4E7D4
:10366000693400002DE9F04FD0F800E0DFF89090C9
:10367000DEF814B083B0CB450446BDF93080BDF808
:1036800034A00D4617461E4631D1CDF800A0DEF815
:1036900024B0294633463A462046D8472368CDF819
:1036A00000A008F1FF323A44D3F824B0294612B200
:1036B00033462046D8472368CDF800A02946D3F8E2
:1036C00020B03A4643462046D8472068CDF800A0AF
:1036D000711E29444346056A09B23A462046A84766
:1036E0002368DB6A4B4506D103B0BDE8F08FD847AD
:1036F000D4F800E0C9E7204603B0BDE8F04F184712
:1037000069340000F0B4002401254FF6FF76094F1C
:10371000076004710476C48104828476C461C5752F
:103720008575457686824682C1800281418182818B
:10373000F0BC7047080801002DE9F04F91B08346B6
:103740000591C169BDF8680006909DF87400BDF848
:103750006C709DF870A0039002929946002900F0C9
:10376000CC800B7A48680A68C3EB0903DBB21546C4
:1037700000EBC30230F83360D3780993BAF1010F3C
:1037800092F9053092F802800E9392F9064079D9A9
:10379000BDF93830089323B20B93A94BDBF8002016
:1037A0000F93194653698B4240F0A280099B002B6E
:1037B00053D0BDF808300C930021234407910D939A
:1037C0000F460C46A946B8F1000F3FD0BDF81C10BB
:1037D0000B9BBDF80C000297CB1813FB00F30C9861
:1037E00003440D981BB2014404930BB20A930025C5
:1037F00005E00135EBB264009845E4B223D9029BA1
:103800002B44590703D1731C19F806409EB22306B6
:10381000EFD5089BE918059B11FB0AF1BAF1010FDE
:10382000194402D1039B012B1ED0069B0193039BDD
:103830000093D369049A1F4609B253465846B847C5
:10384000DBF80020D5E7029F4744FFB2079B0999A8
:1038500001330793DBB29942B5D8D36A0F9A9342EA
:1038600041D111B0BDE8F08F0E9B059959189369AD
:103870000A9A29441F4609B2069B5846B847DBF806
:103880000020B6E7039B012B82D800230B930893FB
:1038900083E70799099A0131013A49B212F0FF0210
:1038A0000791099260D1069A4A454F4617D0BAF15E
:1038B000010F03D1039A012A00F0B5800A9A0898F3
:1038C00002EB8201039AD2008DE88400084401B221
:1038D000DC69029A53465846A047DBF80030DB6AA1
:1038E0000F9A9342BDD0584611B0BDE8F04F18472B
:1038F00058469847DBF8002058E7BBF90A3005998D
:103900008B42AEDDBBF90C3002988342A9DD062361
:1039100013FB0A13002BA4DD039B00EBC303002B56
:103920009FDD9BF81A3033B9B9F1AF0F84BF09F1AD
:1039300001035FFA83F9424ADBF800300F92114627
:103940005A698A426AD1BDF8142008920522099268
:10395000002207921FFA8AF20A92CDF830900FFAED
:103960008AF2B946039F05920799BDF83040089D39
:103970000522104610FB04120A98324C06460846EF
:1039800001FB0651A65C15FA80F209B212B204914D
:103990000B92082400251CE0BAF1010F01D1012F80
:1039A00024D0069A0192029A009705FB0722D3F8C9
:1039B0001C800499059B12B25846C047DBF80030C2
:1039C000013C013514F0FF046DB24FEA56063FF496
:1039D00060AFF007E0D4069A4A45F1D0BAF1010F82
:1039E00001D1012F0ED0CDF80490DCE7029AD3F874
:1039F00018800B99069BAA1812B25846C047DBF8EC
:103A00000030DDE7029AD3F818800B99AA184B46CC
:103A100012B25846C047DBF80030D1E7584690470D
:103A2000DBF800308FE70899CDF8009005311C6A6B
:103A3000029A082309B25846A047DBF800304EE747
:103A40006934000058080100F0B5C36985B0044628
:103A50003BB30A296FD00D294FD01A7A91424CD32B
:103A6000587A884249D38A1A5D68D2B205EBC205FA
:103A7000AA78002A56D0E878002853D0607E002823
:103A80003ED095F905E0B4F90E00A67DB4F90A70B0
:103A9000724406FB0202BA4269DCE77DB4F91020E9
:103AA00034E00A295CD00D2927D0427E002A50D06C
:103AB000B0F90E00A57DB4F90A60062212FB0502DA
:103AC000B242E67D42DD228AE38102EBC60212B2F7
:103AD00018462282B4F814E0678A03960B460295D2
:103AE00001468DE880402046FFF726FEA37DE2894F
:103AF00003EB430302EB4303E381012005B0F0BD78
:103B0000A67DE77DB4F90E00B4F91020B4F814E0F6
:103B10000397678A02960B468DE88040014620464F
:103B2000FFF70AFE2979E389A27D012001FB023318
:103B3000E38105B0F0BD0022C2819A7AC17D038A7B
:103B400001FB02330382012005B0F0BDB4F910205F
:103B5000C0E7857DC67DB4F91020B0F90E00B9E745
:103B6000028AC17DC38102EBC1030382C5E7002045
:103B7000E0819B7A228AE77D03FB072212B2228230
:103B8000C4E700BF11B18175C1757047012181750E
:103B9000C1757047F0B5047EBDF81450022C75D085
:103BA000032C6ED0012C32D0002A79DBB0F908400A
:103BB000944265DD002978DBB0F906605818B04200
:103BC000C4BF731A1BB2002B5ADD002A1046B8BFBF
:103BD000D01D012440F3CF0002F00702704E01EB2C
:103BE000C01104FA02F2A5423144D2B200F0A4801E
:103BF000C0F09580022D43D1013B11FA83F04B1E9A
:103C000013F8011F514083421970F9D1F0BDC488E7
:103C1000013CA21A12B2002A7BDBB0F906409442A2
:103C20002EDD00293DDBB0F908605818B042C4BF52
:103C3000731A1BB2002B23DDC9B2C808584C02EB23
:103C4000C01211F00701DBB204EB020039D0C1F160
:103C50000801C9B2534E8B42765C2AD2C3EB010EE7
:103C6000FF2747FA0EF7012D06EA070674D06ED338
:103C7000022D40F09480A75C7E40A6548B421DD25A
:103C8000F0BD0489E41A611A09B2C4E70689C48840
:103C9000013EB21AE41A12B2611A002A09B285DA98
:103CA000F0BD0B441BB20021BDE70B441BB2002149
:103CB00082E7012D50D04AD3022DDCD05B1ADBB253
:103CC0008030072B18D9022D4ED0A3F10806C6F379
:103CD000C406B11C00EBC111012D0CBFFF24002450
:103CE00000F1800202F8804C80328A42FAD101361B
:103CF00000EBC61003F00703002BC1D02A4A012DA8
:103D0000D35C2DD006D3022DBAD102785340037074
:103D1000F0BDF0BD027822EA03030370F0BD013B61
:103D2000D24311FA83F0D2B24B1E13F8011F114097
:103D300083421970F9D1F0BD013B11FA83F04B1E9B
:103D400013F8011F114383421970F9D1F0BDA75C2C
:103D500027EA0606A65491E7A75C3E43A6548DE7E2
:103D6000027813430370F0BDA3F10805C5F3C40541
:103D7000AC1C00EBC41400F1800212F8801CC94393
:103D800002F8801C8032A242F7D1013513F00703FC
:103D900000EBC5103FF474AF034AD35CB5E7F0BD48
:103DA000288AFF1F208AFF1F188AFF1FF0B5047E94
:103DB000BDF81450022C76D0032C6FD0012C37D0D4
:103DC00000297ADBB0F906408C4230DD002A79DB2D
:103DD000B0F908609818B042C4BFB31A1BB2002BE8
:103DE00025DDD2B2D008754C01EBC01112F00702EC
:103DF000DBB204EB010071D0C2F10802D2B2704E06
:103E00009342B65C62D2C3EB020EFF2747FA0EF76D
:103E1000012D06EA070600F0AC80C0F0A580022D57
:103E200040F0CA80675C7E406654934253D2F0BD36
:103E3000C488E41AA21A12B2002977DBB0F908404C
:103E40008C42F4DD002A39DBB0F906609818B042E4
:103E5000C4BFB31A1BB2002BE9DD00290846B8BF66
:103E6000C81D012440F3CF0001F00701534E02EBBF
:103E7000C01004FA01F1A54206EB0002C9B268D0F5
:103E80005AD3022DD3D1013B12FA83F0531E13F8FB
:103E9000012F4A4083421A70F9D1F0BD0489013CD8
:103EA000611A09B2C8E7C6880489013E711AE41A8A
:103EB00009B2A21A002912B284DAF0BD13441BB26F
:103EC0000022C1E713441BB2002281E7012D50D02C
:103ED0004AD3022DA6D09B1ADBB28030072B18D90B
:103EE000022D4ED0A3F10806C6F3C406B11C00EBA8
:103EF000C111012D0CBFFF24002400F1800202F843
:103F0000804C80328A42FAD1013600EBC61003F0B1
:103F10000703002B8BD02B4A012DD35C2DD006D369
:103F2000022D84D1027853400370F0BDF0BD0278B9
:103F300022EA03030370F0BD013BC94312FA83F088
:103F4000C9B2531E13F8012F0A4083421A70F9D1E7
:103F5000F0BD013B12FA83F0531E13F8012F0A4300
:103F600083421A70F9D1F0BD675C27EA06066654F1
:103F70005BE7675C3E43665457E702781343037080
:103F8000F0BDA3F10805C5F3C405AC1C00EBC414D7
:103F900000F1800111F8802CD24301F8802C80318F
:103FA000A142F7D1013513F0070300EBC5103FF430
:103FB0003EAF044AD35CB5E7F0BD00BF288AFF1FBF
:103FC000208AFF1F188AFF1F002905DB10B4B0F9F3
:103FD0000A408C4201DC10BC7047002AFBDBB0F9C0
:103FE0000C409442F7DD047E022C4AD0032C42D0D0
:103FF000012C04D1C0880138801A0A4601B2012B75
:1040000027D013D3022BE6D1002A1346B8BFD31D05
:1040100043F3CF0301EBC3111E4C02F00702635CB4
:10402000012000FA02F25A406254D4E7002A1346F3
:10403000B8BFD31D43F3CF0301EBC311154C02F0FE
:104040000702635C012000FA02F223EA02026254D2
:10405000C1E7002A1346B8BFD31D43F3CF0301EBDA
:10406000C3110C4C02F00702635C012000FA02F25B
:104070001A436254AFE700890138401A114602B270
:10408000BDE7C4880089013C0138611A821A09B26F
:1040900012B2B4E7288AFF1F38B5202204460D4625
:1040A0008021FFF72FFBFF23064A84F8255084F870
:1040B000223084F8263084F8243084F823302260BB
:1040C000204638BD600D01004FF400720021014808
:1040D00008F01CB8288AFF1FF0B590F92230013390
:1040E00083B004460F463DD0012190F8260003F02E
:1040F000FBFC002194F8240003F0F6FC002194F866
:10410000260003F0F1FC94F827308BB1214B1A689C
:104110004FF00043D3625763D36A002BFCDA936BF2
:1041200094F82600012103B0BDE8F04003F0DCBCA8
:1041300008268025002194F8230003F0D5FC17EA17
:1041400005034FF0010194F8220008BF194603F05F
:10415000CBFC012194F82300CD4003F0C5FC013EC7
:10416000E8D1DDE70C4D90F82010284601F0AEFDB7
:104170002846002101F080FA3946284601F07CFAF1
:1041800000236A7B296900932846012301F000FF80
:1041900003B0F0BD6091FF1FC0BFFF1FF0B50D461B
:1041A00090F9221080F82020013187B0044680F871
:1041B00021501F4600F0AE80012190F8240003F04A
:1041C00099FC012194F8260003F094FC94F8273020
:1041D000002B00F0E080874E304602F057FBF37A68
:1041E000002B40F0E8803368834AD968914206D0BA
:1041F000824E834883491E60DA6018611960E7B116
:1042000094F92500002818DBC0B2012103F072FCEC
:10421000012194F8250003F067FC012003F094FCD1
:10422000002194F8250003F05FFC0A2003F08CFCC9
:10423000012194F8250003F057FCAE212046FFF73A
:104240004BFFD5212046FFF747FF80212046FFF78F
:1042500043FFA8212046FFF73FFF1F212046FFF71D
:104260003BFFD3212046FFF737FF00212046FFF711
:1042700033FF40212046FFF72FFF8D212046FFF717
:104280002BFF012D5AD014212046FFF725FF2021B6
:104290002046FFF721FF00212046FFF71DFFA12147
:1042A0002046FFF719FFC8212046FFF715FFDA2146
:1042B0002046FFF711FF02212046FFF70DFF812165
:1042C0002046FFF709FF8F212046FFF705FFD92180
:1042D0002046FFF701FFF1212046FFF7FDFE2046B3
:1042E000DB21FFF7F9FE20464021FFF7F5FE2046CF
:1042F000A421FFF7F1FE2046A621FFF7EDFE2046A0
:104300002E21FFF7E9FE2046AF2107B0BDE8F040BF
:10431000FFF7E2BE3C4B3D4A597B186904920023EB
:1043200002224FF0120E13260592039300931A46B1
:10433000CDF808E0019601F0C7FB60E720461021A8
:10434000FFF7CAFE20462021FFF7C6FE20460021C7
:10435000FFF7C2FE2046A121FFF7BEFE2046C8217E
:10436000FFF7BAFE2046DA21FFF7B6FE204602210B
:10437000FFF7B2FE20468121FFF7AEFE20468F21D7
:10438000FFF7AAFE2046D921FFF7A6FE22212046EC
:10439000FFF7A2FEA3E7012194F8220003F0AAFB95
:1043A000012194F8230003F0A5FB94F82730002B9B
:1043B0003FF425AF0FE772B6F37AD8071A4606D551
:1043C0001349F26808680240B2610A601A46990708
:1043D00006D5104933690868F27A0340F3610B602F
:1043E000530705D50C4A736911680B40336213609B
:1043F00062B6F8E66091FF1F000002B801403F007E
:10440000000002F800003F80C0BFFF1F801A0600B6
:1044100080E100E084E100E088E100E02DE9F04F78
:104420002121054683B0FFF757FE28460021FFF7FC
:1044300053FE28467F21FFF74FFE28462221FFF733
:104440004BFE28460021FFF747FE28460321FFF7D1
:1044500043FE95F9223001334AD0012195F8260018
:10446000374FDFF8E8A003F03FFB012195F8240067
:1044700003F03AFB002195F8260003F035FB07F521
:1044800000784FF0004995F8273017F801BF13BBAB
:1044900008268024002195F8230003F025FB1BEA61
:1044A00004034FF0010195F8220008BF194603F0FC
:1044B0001BFB012195F82300CC4003F015FB013EC6
:1044C000E8D14745DFD195F82600012103B0BDE8CA
:1044D000F04F03F009BBDAF80020C2F82C90C2F8C4
:1044E00034B0D36A002BFCDA4745936BCBD1EAE7B3
:1044F000144FDFF85480002495F82010124801F082
:10450000E5FB4021104801F0B7F804F11006B6B2FF
:10451000395D0D480134A4B201F0AEF8B442F7D1D0
:10452000002398F80D20D8F81010074800930123B5
:1045300001F02EFDB4F5007FDED103B0BDE8F08FB1
:10454000278AFF1F288AFF1FC0BFFF1F6091FF1F20
:1045500010B4012400224FF06051047181600260A8
:10456000427110BC704700BF70B5A2F12003044631
:10457000012600254FF06050072B216026716571E0
:10458000A0600FD90A4802F081F92078012103F0D8
:10459000B1FA0121207803F0A7FA322003F0D4FA0F
:1045A000204670BDB24042EA060362712371E9E71A
:1045B0006091FF1FF8B5364C8268E37A05460E46D7
:1045C000BBB172B6E37AD807194606D53148E1681F
:1045D00007683940A161016019469B0706D52E483E
:1045E00023690768E17A3B40E36103604F0748D4E1
:1045F00062B62368D968914207D0284818602849D4
:10460000DA6042F08040186119600021287803F0D8
:104610006BFA23682A794FF00041D9625A63DA6A4B
:10462000002AFCDA4FF00042996BDA625E63DA6AC4
:10463000002AFCDA4FF000414FF08052986BD962AB
:104640005A63DA6A002AFCDA9B6B287801219DB252
:1046500003F04AFAE37A0E491A4683B1D80703D524
:10466000104A896911601A46990703D50E4BE16912
:10467000E27A1960530702D50C4B226A1A60284669
:10468000F8BD0B4963690868034023620B60AFE71C
:104690006091FF1F80E100E084E100E001403F0005
:1046A00000003F8000E100E004E100E008E100E0FC
:1046B00088E100E0F8B5384CE37A05460F4680689B
:1046C0001646EBB172B6E37AD9071A4609D5DFF878
:1046D000E4E0E168DEF800200A40A261CEF80020A4
:1046E0001A46990709D5DFF8D0E02169DEF80030D5
:1046F000E27A0B40E361CEF80030530744D462B64F
:104700002368DA68824207D024491960244AD860B5
:1047100040F0804119611A600021287803F0E4F923
:1047200023686A794FF00041D9625A63D96A002937
:10473000FCDA4FF00042996BDA625F63D96A0029B4
:10474000FCDA4FF00042996BDA625E63DA6A002AA3
:10475000FCDA012128789B6B03F0C6F9E37A0E4955
:104760001A4683B1D80703D50E4A896911601A46E3
:10477000990703D50C4BE169E27A1960530702D51A
:104780000A4B226A1A60F8BD094A636911680B4036
:1047900023621360B3E700BF6091FF1F01403F0039
:1047A00000003F8000E100E004E100E008E100E0FB
:1047B00088E100E080E100E084E100E0F8B5394CF8
:1047C000E37A05460F4680681646EBB172B6E37A87
:1047D000D9071A4609D5DFF8E8E0E168DEF80020DD
:1047E0000A40A261CEF800201A46990709D5DFF8E1
:1047F000D4E02169DEF80030E27A0B40E361CEF8C4
:104800000030530746D462B62368DA68824207D084
:1048100025491960254AD86040F0804119611A6025
:104820000021287803F060F923686A794FF000418D
:10483000D9625A63D96A0029FCDA4FF00042996BB9
:10484000DA625F63D96A0029FCDA46F080564FF0DD
:104850000042996BDA625E63DA6A002AFCDA0121AF
:1048600028789B6B03F040F9E37A0E491A4683B12E
:10487000D80703D50E4A896911601A46990703D5EE
:104880000C4BE169E27A1960530702D50A4B226AA0
:104890001A60F8BD094A636911680B40236213600E
:1048A000B1E700BF6091FF1F01403F0000003F8063
:1048B00000E100E004E100E008E100E088E100E060
:1048C00080E100E084E100E062B170B505460E468B
:1048D00014462B6816F8011B1B6828469847013CB4
:1048E000F7D170BD1046704702F03ABC02F020BC10
:1048F00002F0FABB084602F0E1BC00BF02F00EBDB8
:1049000070B5144D0446032607E002F0EDFB637B0F
:10491000C0B263B9DB2814D16673206903685B6990
:10492000AB42F2D09847637BC0B2002BF2D0032B8E
:104930000CD10023DC28637306D0DD2806D1DB20F0
:1049400070BDC02802D070BDC02070BD4FF0FF30D8
:1049500070BD00BFF148000010B5044600690B4A65
:1049600003689B6993420BD102F0E2FB637B032B4C
:10497000C0B200D010BDDC2804D0DD2804D010BDAA
:104980009847F3E7C02010BDDB2010BDED480000C4
:104990000069044A0368DB68934201D102F0BEBC9F
:1049A000184700BFFD4800002DE9F041344D354E59
:1049B000354F04464FF00108206903681B69AB427C
:1049C0001FD102F0CDFBF8B1637B002B2ED1206903
:1049D00003689B69B34219D102F0AAFBC0B2DB287D
:1049E00018D0C0281FD1206984F80D8003685B6946
:1049F000BB4216D102F078FB206903681B69AB4209
:104A0000DFD098470028DFD1BDE8F0819847C0B2D9
:104A1000DB28E6D1206903685B690322BB4262732D
:104A2000E8D09847C8E70120BDE8F081032BFAD011
:104A3000012B08D0022B02D00020BDE8F08100201D
:104A40006073BDE8F08120690E4A03689B69934258
:104A500010D102F06DFBC028F1D120690A4A036829
:104A60005B6902219342617306D102F03DFB002095
:104A7000BDE8F0819847EEE798470020BDE8F08157
:104A8000E9480000ED480000F1480000C02970B579
:104A9000044621D0DB29006909D002681E4C126847
:104AA000A24216D10846BDE8704002F007BC026879
:104AB000194D1268AA4222D1084602F0FFFB206974
:104AC00003681B68AB421CD1DD20BDE8704002F0DA
:104AD000F5BBBDE87040104700690F4D03681B68C7
:104AE000AB4216D1DB2002F0E9FB206903681B68AA
:104AF000AB420AD1DC20BDE8704002F0DFBB90473A
:104B0000DDE7DD21BDE870401847DC21BDE87040DD
:104B10001847DB219847E8E7F548000030B4002249
:104B20004FF47A75044C8560046001610271027370
:104B3000427330BC704700BFB80D0100437B022BAD
:104B400010B504461FD0012B01D0002010BD006914
:104B5000134A03681B69934219D102F001FB90B11B
:104B60002069104A03689B69934214D102F0E0FA6D
:104B7000C0B2C02807D120690B4A03685B69934221
:104B80000BD102F0B1FA00236373012010BD9847E6
:104B90000028F8D0E4E79847EAE79847F3E700BF32
:104BA000E9480000ED480000F1480000704700BFF0
:104BB0000069054A03681B68934202D1C02002F0D5
:104BC0007DBBC021184700BFF54800000069094AB5
:104BD00008B503681B68934206D1C02002F06EFB43
:104BE000BDE8084002F09ABBC0219847BDE80840E4
:104BF00002F094BBF54800000022732370B5044610
:104C00000270836008460D4607F07AFF013060604D
:104C100006F03AFF30B10646294607F0FFFE26614E
:104C2000204670BD03232370204670BD30B400259C
:104C300069240422057084600161426030BC7047C1
:104C400030B400256624042205708460016142604E
:104C500030BC704770B483B08DE8060003469DE811
:104C6000030000267425082403F110011E709D60C6
:104C70005C6081E80500184603B070BC704700BF57
:104C800070B4002608256424067045608460C0E97D
:104C9000042370BC704700BF2DE9F041144682B078
:104CA000C4F30723160E8DF80630C2F307426223C1
:104CB000836005460023201D8DF807408DF80460B1
:104CC0008DF80520019E0096984268602B700FDDDC
:104CD000884606F0D9FE074678B1224640F8046BB4
:104CE000414602F067F928462F6102B0BDE8F08125
:104CF00028462B6102B0BDE8F081032328462B70C3
:104D000002B0BDE8F08100BF4368002B10B5044637
:104D100004DD8368732B03D0622B01D0204610BDC5
:104D2000206906F0B9FE204610BD00BF10B4022471
:104D3000002204708160426010BC70478368662B5B
:104D40000CBF00690020704710B5044600202060A9
:104D5000A0602073606020616061A061102107F095
:104D600027FA206128B11023A361002363616373D4
:104D700010BD03232373002320616361637310BD9F
:104D800010B50446FFF7E0FF02232373204610BD51
:104D90008368426870B50024A342054604730EDDA3
:104DA00052F82460013430463EB1FFF7ADFF304683
:104DB000182104F023FA6A68AB68A342F0DC1046BD
:104DC00006F06AFE00236B60AB606B7310212869EC
:104DD00007F0EEF9286128B11023AB6100236B6165
:104DE000284670BD03232B73002328616B6128467E
:104DF00070BD00BF10B50446006806F04DFE2046A9
:104E0000FFF7C6FF206906F047FE204610BD00BF31
:104E100083688B4203DD436853F821007047042305
:104E200003730020704700BF8268914230B41FDADC
:104E30004468037B54F82150191C18BF0121002A33
:104E400012DD00239A4204DC0422002302731B7843
:104E5000FFDE446854F8234024780133002C18BF47
:104E600041F001019A42EDDC49B9287A30BC704723
:104E70000423002A037302DD00250121E1E700205D
:104E800030BC704770B48468A14223DA4568037B64
:104E900055F82160191C18BF0121002C12DD0023D8
:104EA0009C4204DC0422002302731B78FFDE456869
:104EB00055F823502D780133002D18BF41F0010122
:104EC0009C42EDDC69B9B368981AB0FA80F04009E9
:104ED00070BC70470423002C037302DD00260121FF
:104EE000DDE7002070BC70476622FFF7CBBF00BF34
:104EF00030B50546006883B001AB104414466A46DD
:104F000001F026FF0328009B07D0002B08DD2A684C
:104F10001A44125D2F2A18BF0023184603B030BD73
:104F20000023184603B030BD70B515461A461C461E
:104F30000646FFF7DDFF002804DD21183046A847AC
:104F4000012070BD002070BDF8B50D460446006814
:104F500006F0A2FD284607F0D3FD461C304606F0B9
:104F600093FD074630B13246294602F023F8276008
:104F70002046F8BD0323206023732046F8BD00BF00
:104F800038B504460D46FFF7DFFE29462046FFF7F9
:104F9000DBFF204638BD00BF806870472DE9F04731
:104FA000027B06468068003218BF0122002884B0C8
:104FB0000C460BDD736803EB800053F8041B097883
:104FC000002918BF42F001028342F6D11AB13046DF
:104FD00004B0BDE8F0873768384607F091FD2368D4
:104FE000421C554205F0030539465B682046984748
:104FF00035B1236800211B6820469847013DF8D150
:1050000023682C211B6820469847B368002B0DDDD0
:1050100000252368294630461F68FFF705FF014633
:105020002046B847B3680135AB42F2DCDB4313F0EE
:10503000030346D05D1E2368013D1B680021204606
:1050400098476B1CF7D1B268002AC0DD00271DE02D
:10505000642B38D0742B4AD0542B14D0462B12D04A
:10506000EB7C8DF80830AB7C8DF809306B7C8DF8CB
:105070000A302A7C23688DF80B206A685B6802A9D5
:1050800020469847B2680137BA42A0DD736853F8EA
:105090002750AB68732B01D0622BD9D123686A6883
:1050A00029695B68204698476D686D4215F00305D5
:1050B000E8D0236800211B6820469847013DF8D1BD
:1050C000E0E70325B7E705F117030DF107020F35F8
:1050D00013F8011902F8011FAB42F9D12368082225
:1050E0000DEB02015B6820469847B268CBE7287C4D
:1050F0006B7CAA7CE97C95F8148095F8159095F85E
:1051000016A0ED7D8DF80B008DF808108DF80A3093
:105110008DF80920029A2368019204220DEB020106
:105120005B68204698478DF808508DF809A08DF8E7
:105130000A908DF80B80029A2368019204220DEBED
:1051400002015B6820469847B2689CE710B5016988
:105150000446FFF7F9FE002323732069102107F0AE
:1051600027F8206120B11023A3610023636110BDE3
:105170000323237300232061636110BD2DE9F043F5
:105180008668002E85B00FDD47683A681378022BD9
:105190000DD03C46002304E054F8042F1578022D6E
:1051A00006D00133B342F7D105B0BDE8F083002348
:1051B0009268623A0446122AF6D801A050F822F00A
:1051C0000D540000A9510000AF530000A951000088
:1051D0005D530000A9510000A9510000ED520000EC
:1051E000A9510000A9510000A9510000A9510000D7
:1051F000A9510000A9510000A9510000A9510000C7
:10520000A9510000B35200000D5200006269082A43
:10521000CAD1226957F82350106851686A4603C200
:105220009DF803609DF802009DF801109DF8002094
:105230008DF808608DF809008DF80A108DF80B20A4
:105240009DF807609DF806009DF805109DF8042064
:10525000DDF808808DF808608DF809008DF80A10D7
:105260008DF80B209E00029F35B12846FFF74CFDBC
:105270002846182103F0C2FF1820CDF808800397B4
:1052800003F0BAFF04AB054613E90600FFF7E2FCA2
:105290002B78032B00F0B88063689D5110212069A2
:1052A00006F086FF2061002851D10323206123737B
:1052B0004FE000297FF478AF57F8235027699E000C
:1052C00035B12846FFF720FD2846182103F096FF48
:1052D000182003F091FF05463946FFF78DFC2B7827
:1052E000032B00F0D98063689D51BFE06269042AF6
:1052F0007FF45AAF226957F8235016785078917886
:10530000D2788DF80B608DF80A008DF809108DF8B1
:1053100008209E00029F35B12846FFF7F5FC28467D
:10532000182103F06BFF182003F066FF054639468D
:10533000FFF77CFC2B78032B37D063689D5110213D
:10534000206906F035FF2061002800F09C801023C2
:10535000A3610023636105B0BDE8F0836269042A9C
:105360007FF422AF226957F823501678507891784D
:10537000D2788DF80B608DF80A008DF809108DF841
:1053800008209E00029F35B12846FFF7BDFC284645
:10539000182103F033FF182003F02EFF054639468D
:1053A000FFF74EFC2B78032BC7D12373C7E7626945
:1053B000082A7FF4F9AE2269516810686A4603C270
:1053C0000DF107010A460DF1FF3512F8010901F848
:1053D000010FAA42F9D157F823509E00DDE9028956
:1053E00035B12846FFF790FC2846182103F006FF48
:1053F000182003F001FF05464B464246FFF740FCEC
:105400002B78032B7FF448AF237347E761690429A6
:105410007FF7CAAE25692A786E788DF80B20A878B8
:10542000EA788DF808208DF80A608DF80900029E50
:10543000321D91427FF4B8AE57F823704FEA8308CB
:1054400037B13846FFF760FC3846182103F0D6FE26
:10545000182003F0D1FE07463246291DFFF71CFC39
:105460003B78032B18D0636843F80870102120693B
:1054700006F09EFE206158B11023A361002206238E
:105480006261637390E6032200232273236160E765
:10549000032320612373F1E72373E7E738B58369BA
:1054A000002B08DD436902695C1C4461D1548369A7
:1054B000013B836138BD0D464169044611310069E5
:1054C00006F076FE206130B16369591C6161C554F4
:1054D0001022A26138BD0323237338BD70B5044682
:1054E0000D46FFF7DBFF637B062B11D8DFE803F0E7
:1054F0003D424A590611170003232373A2686169CC
:10550000D34313F0030308BF0423134499421FD06D
:1055100070BD29462046BDE87040FFF72FBEA56844
:105520006B1EF5D49A0004E0013B591CA2F1040261
:10553000EED09D423ADD6168895808780028F3D1A1
:105540004B685B4213F0030335D062699A42DFD1A6
:105550001021206906F02CFE206178B31023A3618E
:10556000002205236261637370BD2F2DD0D101230A
:10557000637370BD002DCBD12046FFF7E7FD0223FA
:10558000637370BD2C2DC3D1032565731021206971
:1055900006F00EFE206178B31023A361002363613F
:1055A00070BD85B90423A2686373A8E704220023B1
:1055B00022731B78FFDE0523637370BD0322002373
:1055C00022732361CCE7182003F016FE0646294615
:1055D000FFF7ACFB3378032B8FD0A3686068591CAE
:1055E000890006F0E5FD002886D0A36860605A1C9B
:1055F00040F82360A26082E725732061CEE700BFF8
:1056000070B5064642B10D46144615F8011B3046EA
:10561000FFF764FF013CF8D1304670BD0369D3F851
:105620003801D3F83431C01A704700BF0369D3F88A
:105630003411D3F83821914208D2D3F83421511CC7
:105640001A44C3F8341192F8300070474FF0FF301D
:10565000704700BF0369D3F83411D3F83821914261
:105660003DBFD3F834219B1893F830004FF0FF3042
:10567000704700BF704700BF0369D3F84422B2F5FA
:10568000817F03D90123037100207047D3F844229E
:1056900010B49C180132C3F8442284F83C11012054
:1056A00010BC704738B503690A4A026093F8482273
:1056B000022A044601D0204638BDD3F87452002D8A
:1056C000F9D0284603F04AFC2846082103F096FD4D
:1056D000204638BDDC0D010038B503690546D3F816
:1056E0004402B0F5817F1AD81446D3F84422D3F887
:1056F0004402C2F58172013203F59E73A24218443E
:1057000002D2012314462B71224601F053FC2A6970
:10571000D2F844322344C2F84432204638BD012333
:105720002B71002038BD00BF2DE9F0471E4604460E
:1057300017469DF820909DF824309DF828A00D462E
:1057400059B301290FD090F84A329A424FF000081D
:1057500000D14DB3012D0ED094F84B329E4212D0A1
:105760000020BDE8F0871D2F4FD01A2F77D094F876
:105770004A324FF000081E2E1AD01F2E6DD094F81A
:105780004B329E42ECD1BAF1000FE9D00025B8F1BE
:10579000000FE5D0002DE3D031E0102A35D0132AD8
:1057A00033D090F84A328846A6F11103012BE6D88F
:1057B000022594F84B329E4257D0BAF1000F09D01F
:1057C00094F84C3294F84B02002B14BF02210021B4
:1057D00002F090F92B02B9F1000F13D143F06403EA
:1057E000264A02EBC60201215268136084F84B621C
:1057F00084F84C9284F89912B8F1000FB0D00120CF
:10580000BDE8F08743F00303EAE74FF0020894F89D
:105810004A22974226D04BB194F84C3294F84A026F
:10582000002B14BF0221002102F064F94FEA082284
:10583000B9F1000F0ED142F06402104B03EBC70325
:10584000596801230A6084F84A7284F84C9284F8FB
:1058500098327EE742F00302EFE70625A9E74FF012
:105860000608D4E7002BE1D073E7BAF1000FB1D0FE
:10587000B8F1000F3FF474AF8CE700BF840F010054
:10588000F8B5C3681B789B0610D483680D46802149
:105890001970C3681221197090F84932012B04461F
:1058A00006D08AB980F848220120F8BD0020F8BD52
:1058B0001A4675B9474B4FF080711960022A0FD014
:1058C000012084F84802F8BD531E012BF1D90120B4
:1058D000F8BD012DF2D13F4B4FF000711960EDE79B
:1058E000D4F87462002E6AD03379102B30D0002D9A
:1058F0003CD132683849938B384F9BB243F0080350
:1059000093833279531102F110009B0041F820700B
:1059100003F1604303F56143012102F01F0201FA24
:1059200002F231681A608B8B9BB243F002038B83C7
:10593000337903F1804303F5043396221D701A7006
:105940000022022384F85E2284F848320120F8BD48
:10595000304603F003FB3046082103F04FFC0023E0
:105960000120C4F8743284F84802F8BD012DE7D153
:1059700032681949938B1A4F9BB243F00803938303
:105980003279531102F110009B0041F8207003F1AD
:10599000604303F5614302F01F02954032681D60C9
:1059A000938B9BB243F002039383337903F18043DB
:1059B00003F504330021972219701A70C0E70820FC
:1059C00003F01AFC314607463E4603F063FAC4F87A
:1059D000747289E700E100E00084FF1F4D6600005B
:1059E00059660000F0B5284EDFF8ACE0A6FB014395
:1059F000A6FB02429E09370275469609142400232D
:105A0000B7FBF6F604E00133372B1BD055F8044FF3
:105A100022029642F7DA83BB14241C4A4568B1FB84
:105A2000F4F491422B70C0F8504207D8184B8269A9
:105A3000A3FB0131C1F307511170F0BD836904224A
:105A40001A70F0BD002422464FF470274FF47065A1
:105A50004FF0360CB21AF71B002A87EAE776A6EB5E
:105A6000E776B8BF5242964202DD0A4AD35CD4E7D9
:105A7000084B2C4613F80C30CFE703F1FF3C5EF8DF
:105A80002C502F02E6E700BFD34D6210FF6BDC0203
:105A9000819F5E16D40E0100F80D0100F0B49DF850
:105AA00014409DF810609DF818503CB135B1C7689E
:105AB0003F78BF0602D50020F0BC704706950594DC
:105AC0000496F0BCFFF730BE2DE9F04184B00446E7
:105AD00094469DF828609DF82C209DF830009DF894
